:100000000C94E3020C94C7180C942A030C942A0352
:100010000C942A030C942A030C942A030C942A03AC
:100020000C942A030C942A030C94292C0C94FB2C7A
:100030000C940D270C942A030C942A030C942A0385
:100040000C942A030C942A030C942A030C942A037C
:100050000C942A030C9466270C942A030C942A030C
:100060000C942A030C942A030C942A030C942A035C
:100070000C942A030C942A030C942A030C942A034C
:100080000C942A030C942A030C942A030C942A033C
:100090000C942A030C942A030C942A030C942A032C
:1000A0000C942A030C942A030C942A03C21CC21C2D
:1000B000F41CF41C411D5F1D801E801E6A1DFF1D67
:1000C000101E101E701E801E801E791E201F201FF5
:1000D000321F321F291F321F321F321F201F201FC5
:1000E0002E1F321F321F2E1F682D8F2D872E8F2D12
:1000F000872EDB2DFE2D872E552E642E165C1E00BE
:100100001F002000210022002B0014001A0008000C
:1001100015001700390004001600070009000A0046
:10012000E1001D001B00060019000500E000E300CF
:100130004A00E20001512C00230024002500260083
:1001400027002A001C0018000C00120013002F00CA
:100150000B000D000E000F003300340011001000E2
:10016000360037003800E5002C000151E6004D0054
:10017000E400280035003A003B003C003D003E0012
:100180000100000000000000000044000100000029
:100190000000000000000000010000000000AC00B2
:1001A000AE00AB00010001004B004900010001005E
:1001B0003F0040004100420043004C004500000069
:1001C00000002D002E0030005000510052004F0062
:1001D00000003100AA00A800A900000000000100F2
:1001E0000100010046004E00010002510000000025
:1001F00000000000000000000000000000000000FF
:10020000C75CC35C0000000000000000C95CC55C66
:100210000000000000000000CB5C1D5C000000003E
:1002200000000000010000000000000000000000CD
:100230000000005CC35CC65C000000000000000021
:10024000C45CC85C00000000000000001E5CCA5CCA
:10025000000000000000000000000100000000009D
:10026000000001001E0F0500047F3F1F643214646C
:100270003214783C1E1E140A052223252628292A1A
:100280002C2D2F3032333536383A3B3D3E404243F9
:100290004547494A4C4E5051535557595A5C5E6038
:1002A00062646668696B6D6F71737577797B7D7F4A
:1002B00081838587898A8C8E90929496989A9C9E49
:1002C0009FA1A3A5A7A8AAACAEAFB1B3B4B6B8B965
:1002D000BBBCBEBFC1C2C3C5C6C7C9CACBCCCDCECD
:1002E000D0D1D2D2D3D4D5D6D7D7D8D9D9DADADBB0
:1002F000DBDBDCDCDCDCDCDDDDDDDDDCDCDCDCDC3C
:10030000DBDBDBDADAD9D9D8D7D7D6D5D4D3D2D27A
:10031000D1D0CECDCCCBCAC9C7C6C5C3C2C1BFBE62
:10032000BCBBB9B8B6B4B3B1AFAEACAAA8A7A5A3CD
:10033000A19F9E9C9A98969492908E8C8A8987858C
:1003400083817F7D7B79777573716F6D6B6968666B
:100350006462605E5C5A5957555351504E4C4A493D
:1003600047454342403E3D3B3A3836353332302FE5
:100370002D2C2A292826252322FFAA7F554000015B
:100380000101010101010101020202020202020255
:100390000203030303030303030404040404040427
:1003A00005050505050606060606070707070708EB
:1003B000080808090909090A0A0A0B0B0B0C0C0C9E
:1003C0000D0D0D0E0E0E0F0F0F1010111111121238
:1003D00013131414151516161717181819191A1AB5
:1003E0001B1B1C1D1D1E1E1F202021222223242416
:1003F000252626272829292A2B2C2D2D2E2F303152
:100400003232333435363738393A3B3C3D3E3F4063
:100410004142434445464748494A4C4D4E4F50514E
:100420005354555658595A5B5D5E5F616264656608
:1004300068696B6C6D6F7072737577787A7B7D7E8F
:100440008082838587888A8C8E8F91939596989ADF
:100450009C9EA0A2A3A5A7A9ABADAFB1B3B5B7BAF7
:10046000BCBEC0C2C4C6C9CBCDCFD1D4D6D8DBDDCB
:10047000DFE2E4E7E9EBEEF0F3F5F8FAFDFF2A033B
:1004800054006800650020004E007900710075007E
:1004900069007300740020004B0065007900620061
:1004A0006F0061007200640000000E034B006500E5
:1004B0006500620069006F0000000403090409027E
:1004C0003B00020100A0FA09040000010301010041
:1004D0000921110100012240000705810308000ADB
:1004E000090401000103000000092111010001229B
:1004F0007B000705820320000A12011001000000A2
:100500000810CB563100030102000105010902A1C8
:100510000185020901A10005091901290815002515
:100520000195087501810205010930093115812500
:100530007F95027508810609381581257F9501751B
:10054000088106050C0A38021581257F950175087A
:100550008106C0C005010980A101850319012AB7E0
:1005600000150126B700950175108100C0050C0922
:1005700001A101850419012AA002150126A00295F6
:100580000175108100C005010906A101050719E0E8
:1005900029E7150025019508750181029501750867
:1005A00081010507190029FF150026FF0095067532
:1005B0000881000508190129059505750191029525
:1005C0000175039101C011241FBECFEFDAE0DEBF39
:1005D000CDBF04B603FE27C0809147039091480326
:1005E000A0914903B0914A038730904BA740B04B8C
:1005F000D1F41092470310924803109249031092CD
:100600004A0314BE84B7877F84BF0FB6F894A895B9
:1006100080916000886180936000109260000FBE3E
:10062000E0E0F8E3099511E0A0E0B1E0E4E9F0E6EC
:1006300002C005900D92AA3DB107D9F723E0AAEDBB
:10064000B1E001C01D92A734B207E1F70E9463290F
:100650000C9448300C9400000E94241485E00E9401
:1006600092140E9439114FEF6FEF80E00E94940DB9
:100670008BE00E94361160E070E0CB010E94EF2514
:100680000C94FB2581E0089581E008950C944403C7
:1006900008950C9448031F93CF93DF9300D000D0AC
:1006A0001F92CDB7DEB749835A836B8330916E02B8
:1006B00089819A81311114C0662359F0222349F0AF
:1006C0000E945B24182F682F89819A810E9402243E
:1006D00003C00E942E24182F69817A81812F04C0C3
:1006E0000E945B2469817A810F900F900F900F9088
:1006F0000F90DF91CF911F910C941E04FC01262FC7
:10070000408151816281738184810C944B03CF932A
:10071000DF93EC0160E00E947E03BE01DF91CF9188
:100720000C9449030E9429060E9437150C94630615
:100730000C945F0608950E940E1F0E949A032FEFEB
:1007400084E39CE0215080409040E1F700C000002D
:100750000C94D6270F931F93CF93DF938C0161E006
:100760000E947E03EC01B8010E944603882309F42D
:100770004BC0B801CE010E949814882309F444C0EC
:10078000B801CE010E94E5158823F1F1B801CE0130
:100790000E9437168823C1F1B801CE010E9462176A
:1007A000882391F1B801CE010E94D412882361F10F
:1007B000F8018281882309F1CB358DE5D807C1F096
:1007C00050F4C115FCE5DF0781F0CF3DDC45A9F40D
:1007D0000E945F2619C0CC35EDE5DE0761F0CD350E
:1007E000DD4559F40E94EE2408C00E949B030CC012
:1007F0000E94F72402C00E94FA24C801DF91CF9121
:100800001F910F910C94420380E0DF91CF911F91D3
:100810000F91089508950C940A0481E008950C94B2
:100820000D04CF93C82F0E940B048C2F0E940F043D
:10083000CF91089580E090E0089508952CE3829F81
:10084000C0011124FC0126E0729FE00DF11D11246E
:10085000E60FF11DEE0FFF1FE450FF4F85919491BD
:100860000895880F991FFC01EC59FD4F85919491D3
:100870000895CF93DF930E941E040E945105EC015E
:100880008115904508F041C0C11580E4D80708F0F3
:10089000D1C0C83ED10510F5C03ED10508F0FDC05D
:1008A000C83AD10578F4C53AD10508F0A2C0C130E4
:1008B000D10509F4F2C008F4EEC0C430D10508F047
:1008C000ECC0E9C0CF3BD10508F49BC0C03CD105CA
:1008D00008F4E1C0CE01805C91099EC0C11590E290
:1008E000D90758F4C11521E0D20708F0D6C0CD3E93
:1008F000D10508F4D0C0D065D0C0C11580E3D807B9
:1009000008F08EC0CE019F7087C0C11595E5D9074C
:1009100008F043C0C11524E5D20708F0A2C0C115F4
:1009200082E5D80708F5C11591E5D90708F085C01B
:10093000CE0174E0969587957A95E1F783709C2FA8
:10094000937021E030E002C0220F331F9A95E2F746
:100950003C68382BCF70C695C69580E2C89FE001F1
:100960001124C22BD32B99C09E01237033278C2FC7
:1009700086958695C115D34508F064C0C1E0D0E0E6
:1009800002C0CC0FDD1F2A95E2F720E2829FC00152
:100990001124C82BD92BDC6880C0C11529E5D207EA
:1009A000A0F4C11588E5D80708F060C0C11596E528
:1009B000D90708F070C08C2F0E94E5058F71C82FF1
:1009C000D0E0DC2FCC27D06268C0C1152AE5D20761
:1009D00008F451C0CE0190568115904208F05BC0DA
:1009E0008D2F8F710E94E505DD27D0628F71D82B86
:1009F00054C0C55AD0E0C559DE4FC881D0E0D0649C
:100A00004CC0C85AD0E0CC0FDD1FC35CDE4F09904C
:100A1000D881C02DD46441C00E943104EC013DC096
:100A2000CE019927D3FF03C0EC01D86C36C0EC018E
:100A3000D06C33C0DF70D06A30C0DC2FCC27C16FE0
:100A4000D06A2BC0C1E0D0E002C0CC0FDD1F2A95D8
:100A5000E2F720E2829FC0011124C82BD92BDA686B
:100A60001CC0DC2FCC27C46FD06A17C0DC2FCC276A
:100A7000C06FD06A12C08C2F8F700E94E50594E081
:100A8000D695C7959A95E1F7CF70D0E0DC2FCC27AB
:100A9000D069C82B02C0C0E0D0E0CE01DF91CF9179
:100AA00008958238910569F1B0F48133910509F414
:100AB0006DC048F48932910509F463C08A3291050A
:100AC00009F469C008958533910509F455C0893347
:100AD0009105B9F00895833E910569F138F4803E9F
:100AE0009105B1F0823E910509F10895863E910588
:100AF000A9F1873E9105B9F1843E910509F064C0E2
:100B000023C02091F00220FD4FC021FD4DC008956B
:100B10008091F00280FD44C08091F10280FF44C0CA
:100B20008091F00284FD42C083EE4DC08091F002BE
:100B300082FF38C0F5CF8091F00282FD33C08091F2
:100B4000F10280FD31C0ECCF8091F10281FF32C013
:100B50008091F00284FD2AC087EE35C08091F002BA
:100B600083FF26C0F5CF8091F00283FD21C08091E4
:100B7000F10281FD1FC0ECCF8091F00285FD1CC009
:100B80001DC08091F00285FD19C016C08091F00251
:100B900086FD16C017C08091F00286FD13C010C0FC
:100BA00089E311C082EE0FC080EE0DC080E00BC063
:100BB00086EE09C084EE07C089E205C085E303C064
:100BC0008AE201C081E390E008959091F00292FFE3
:100BD0000DC0282F2871283019F4877F846006C043
:100BE000282F2471243011F48B7F886093FF0DC06F
:100BF000282F2871283119F4877E846106C0282F98
:100C00002471243111F48B7E88612091F10220FF40
:100C10000DC0382F3871383019F4877F816006C0D5
:100C2000382F3171313011F48E7F886021FF0DC073
:100C3000282F2871283119F4877E816106C0282F5A
:100C40002171213111F48E7E886194FD877E089593
:100C500008950E94BE25811102C00E945F260E9455
:100C6000C9258093E4020E94D1259093F1028093DC
:100C7000F0020E9428060E94CD25682F70E080E0D7
:100C800090E00E9404236091CF027091D002809185
:100C9000D1029091D2020C943C23E82FF0E0E45072
:100CA000FD4F80810895089580EA8A95F1F70895AF
:100CB00000C008950C94540608950C945C060C949E
:100CC0005D060C945C060C946106F894E82FE2959E
:100CD000EF70F0E031A1282F2F7081E090E001C08B
:100CE000880F2A95EAF7982F9095932391A392A1C4
:100CF000892B82A37894089508950C947C060F9311
:100D00001F93CF93DF930E940D088091040180917F
:100D10000401811102C095E001C090E090930703A7
:100D200085E0891B8093060380EF0E94650685EFAE
:100D30000E94650687E90E94650686EF0E946506A7
:100D400087EF0E946506CEE6D1E004E711E08991C5
:100D50000E9465060C171D07D1F7E2EFF2E0ACEF39
:100D6000B2E011921D9282E0EC3FF807D1F785E0E6
:100D70000E94B7070E949203DF91CF911F910F91BC
:100D80000C9421080F931F93CF93DF9300D000D0D2
:100D90001F92CDB7DEB70E94F50760910703882345
:100DA00009F442C08E010F5F1F4F85E0F8011192D8
:100DB0008A95E9F7862F90E0B80184509D4F0E94F4
:100DC000BC17811116C08091DC018F5F8093DC011C
:100DD000863030F1E0910603F0E0E450FD4FD80199
:100DE000CE01069611921D92A817B907D9F711E006
:100DF00018C01092DC01A0910603B0E0A450BD4FD2
:100E0000F8019E012A5F3F4F10E081919C91981755
:100E100011F08C9311E01196E217F307B1F701C0BE
:100E200010E00E9498030DC070E064507D4F8091E7
:100E3000060390E084509D4F0E94F4170E947D06A7
:100E400010E0812F0F900F900F900F900F90DF9177
:100E5000CF911F910F9108958F929F92AF92BF9261
:100E6000CF92DF92EF92FF920F931F93CF93DF9376
:100E700084E7A82E81E0B82EC2EFD2E099E7E92EF0
:100E800091E0F92E912C01E010E06501F5018081DF
:100E9000F894E82FE295EF70F0E021A18F70A8019F
:100EA00002C0440F551F8A95E2F7CA01922F982B72
:100EB00091A392A18095892382A378940E945806D9
:100EC000EEE6F1E020E030E0812C4191A42FA295E4
:100ED000AF70B0E090968C9190E04F7002C0959505
:100EE00087954A95E2F780FD07C0802F022E01C04A
:100EF000880F0A94EAF701C080E0882A2F5F3F4FED
:100F00002630310511F75FEFA51AB50AF601808189
:100F10000E9465060E945A068881881619F0888208
:100F200081E001C080E0982A2196EA14FB0409F0D0
:100F3000ACCF6091070370E064507D4F292D45E0F0
:100F400082EF92E00E94B8070E94C206992011F039
:100F500081E090E0DF91CF911F910F91FF90EF9092
:100F6000DF90CF90BF90AF909F908F90089508959D
:100F7000FF920F931F93CF93DF938C01F62ED72F01
:100F8000C42F222349F081E08093DF010E943F2794
:100F90009093DE018093DD018091DF018823C1F011
:100FA0008091DD019091DE010E945727069780F025
:100FB000EF2DFD2FD8014C2F50E0CD01801B910B60
:100FC000841795071CF48D918193F7CF1092DF0160
:100FD000DF91CF911F910F91FF90089555985D98E3
:100FE00089B185FB882780F908958091E0018111FE
:100FF0000DC00E94C02E811102C082E001C081E0BC
:101000008093E001823011F40E94BB2E81E0909128
:10101000E001913009F080E008950E94EE0780938E
:1010200004018091040166E0882311F080E001C092
:1010300086E00E94500B0E94F50781110C949317D3
:1010400008950E94F507811102C00C949917089524
:101050008091E70180FF0BC060910A0185E0689FE5
:10106000B001112475956795759567952BC081FF23
:1010700009C060910A0185E0689FB001112475954F
:10108000679520C082FF07C060910A0185E0689FD4
:10109000B001112417C09091E6019923D1F060911D
:1010A0000901961788F720910A0185E0289F900191
:1010B0001124929FA001939F500D112470E0CA014A
:1010C0000E940B2F6038710540F46115710519F409
:1010D00006C065E070E0862F08958FE7089581E0EF
:1010E00008958091E70180FF08C06091060170E0DB
:1010F000759567957595679521C081FF06C06091CC
:10110000060170E07595679519C082FF04C0609173
:10111000060170E010C09091E501992399F060916B
:1011200005019617A0F780910601899FC00111243F
:1011300070E00E940B2F6038710540F46115710555
:1011400019F406C061E070E0862F08958FE70895D6
:1011500081E008958D3E21F40E942808819504C005
:101160008E3E29F40E9428088093EB0108958F3E5B
:1011700021F40E942808819504C0803F29F40E9430
:1011800028088093EA010895893F19F40E947108A4
:1011900005C08A3F31F40E94710881958093EC016B
:1011A00008958B3F21F40E947108819504C08C3F03
:1011B00029F40E9471088093ED0108959FE0980F33
:1011C000983078F421E030E0A90102C0440F551FA7
:1011D0009A95E2F7CA019091E901892B8093E90180
:1011E00008958D3F21F48091E70181600BC08E3F0F
:1011F00021F48091E701826005C08F3F29F480913E
:10120000E70184608093E70108958D3E39F4909161
:10121000EB0197FF35C01092EB0159C08E3E29F4C7
:101220009091EB011916BCF32BC09091EA018F3E0F
:1012300029F497FF25C01092EA0149C0803F19F4B4
:101240001916CCF31DC09091EC01893F29F41916B1
:10125000BCF41092EC013BC08A3F19F497FF10C018
:10126000F8CF8B3F39F49091ED0197FF09C01092B0
:10127000ED012DC08C3F21F49091ED011916BCF3C6
:101280009FE0980F983080F421E030E0A90102C07F
:10129000440F551F9A95E2F7CA0180959091E90194
:1012A00089238093E90113C08D3F21F48091E701E8
:1012B0008E7F0BC08E3F21F48091E7018D7F05C0AA
:1012C0008F3F29F48091E7018B7F8093E701809124
:1012D000EA01811106C08091EB01811102C01092D8
:1012E000E6018091EC01811106C08091ED01811130
:1012F00002C01092E50108950E943F272091EA0163
:10130000211104C02091EB01222321F09093E401EC
:101310008093E3012091EC01211104C02091ED01A3
:10132000222321F09093E2018093E10188EE91E085
:101330000C94F619EF92FF920F931F93CF93DF93C4
:1013400000D000D000D0CDB7DEB786E0E8EEF1E007
:10135000DE01119601900D928A95E1F7E090EA0185
:10136000F090EB010091EC011091ED011092EA0177
:101370001092EB011092EC011092ED01E11003C00C
:10138000FF2009F45DC08091E3019091E4010E9487
:101390005727AC019091E601992339F020910B0178
:1013A00030E02417350758F04BC020910C018AE03B
:1013B000289F900111242417350718F041C09F3F42
:1013C00019F09F5F9093E601EE2061F00E942808DB
:1013D0001E1414F09FEF01C091E0989F902D1124EE
:1013E0009093EA01FF2061F00E9428081F1414F076
:1013F0009FEF01C091E0989F902D11249093EB01F5
:101400003091EA013323E1F02091EB012223C1F076
:1014100045EB3403C0011124992319F09093EA019C
:1014200003C081E08093EA0135EB2303C00111245E
:10143000992319F09093EB0103C081E08093EB01B5
:10144000011103C0112309F45DC08091E101909165
:10145000E2010E945727AC019091E501992339F0F0
:101460002091070130E02417350758F04BC0209138
:1014700008018AE0289F900111242417350718F0ED
:1014800041C09F3F19F09F5F9093E501002361F0F9
:101490000E947108101614F09FEF01C091E0989F10
:1014A000902D11249093EC01112361F00E9471089A
:1014B000111614F09FEF01C091E0989F902D112418
:1014C0009093ED013091EC013323E1F02091ED0197
:1014D0002223C1F045EB3403C0011124992319F0F4
:1014E0009093EC0103C081E08093EC0135EB230382
:1014F000C0011124992319F09093ED0103C081E0FC
:101500008093ED018091EA0181110BC08091EB0184
:10151000811107C08091EC01811103C08091ED0120
:1015200081110E947C09EB82FC820D831E8386E080
:10153000FE013196A8EEB1E001900D928A95E1F797
:1015400026960FB6F894DEBF0FBECDBFDF91CF91C8
:101550001F910F91FF90EF900895E8EEF1E086E083
:10156000DF011D928A95E9F71092E6011092E501DC
:101570001092E7010895EF92FF920F931F93CF937C
:10158000DF938B01682F11110AC0442329F0E82F43
:10159000F0E0E258FC4F6491762F862F75C0212F22
:1015A00030E0E82FF0E0442321F0E258FC4FE491D2
:1015B000F0E046E0049FC0011124CFEFD0E0BE016F
:1015C0000E94F72E4BEA4603C001479F900D11245D
:1015D000800F911D800F911D982F990F890FAE01DB
:1015E000421B530B4E9FD0014F9FB00D5E9FB00D1D
:1015F00011249B2F189FA0011124452F55278E01E0
:10160000041B150B0E9FA0010F9F500D1E9F500D28
:1016100011247E01E81AF108E29E8001E39E100D7C
:10162000F29E100D1124212F3327C21BD30BCE9F06
:101630009001CF9F300DDE9F300D11246230710577
:10164000A9F048F46115710569F061307105C9F4BC
:101650008B2F752F0DC06430710581F058F0663006
:10166000710579F47E2F8B2F932F0DC0832F7B2F45
:101670009E2F09C08E2F7B2F952F05C08E2F732F85
:1016800002C07E2F852F692FDF91CF911F910F917F
:10169000FF90EF90089541E00E94BB0A08950895DD
:1016A000E0E1F1E08083618308950E944B0B08958F
:1016B000CF93DF93762FE901682F842F0E94550B7B
:1016C000798368838A83DF91CF910895809108039D
:1016D000282F269530E02115310519F4817082609C
:1016E00005C02B32310524F0817084658093080396
:1016F000089588E090E00C94E92FCF92DF92EF926A
:10170000FF926B017C010E94660BB701A60188E085
:1017100090E0FF90EF90DF90CF900C940730E8E0DE
:10172000F3E083E0808311828FEF828383831482CE
:10173000A7E3B2E012968C911297836012968C9375
:1017400060817181828193810C947D0B809108036B
:1017500080FF02C08695089580E0089590910C0363
:10176000933018F49F5F90930C03882351F060919D
:1017700008037091090380910A0390910B030C9464
:101780007D0B089581E00C94AE0B90910C0399238E
:1017900019F0915090930C03882351F06091080345
:1017A0007091090380910A0390910B030C947D0BB7
:1017B000089581E00C94C50B70E00C94471560917E
:1017C00011018091080380FF0AC08091100123E07D
:1017D000829FC0011124835F9C4F0C94DC0B80918D
:1017E000120190911301891780F7E82FF0E09F0113
:1017F000220F331FE20FF31FE35FFC4F11821082B1
:1018000012828F5FF0CF9091080390FF16C09091E5
:10181000120120911301921770F4E92FF0E0DF011B
:10182000AA0FBB1FEA0FFB1FE35FFC4F818360839E
:1018300042839F5FF0CF0C94DF0B0895CF93DF932B
:1018400000D01F92CDB7DEB79091080390FF0AC079
:101850009E012F5F3F4F0E94580B4B8169818A8107
:101860000E94030C0F900F900F90DF91CF9108957D
:10187000CF93DF93EC01EC81F0E0E758FD4F44910A
:10188000E8E0F3E0628181810E941E0C8C818F5F11
:101890008C83DF91CF910895CF93DF93EC01E8E043
:1018A000F3E0438162818C810E941E0C8C818F5FEA
:1018B0008C83DF91CF9108950F931F93CF93DF9384
:1018C00000D01F92CDB7DEB78C018091EE0181115F
:1018D0000AC09E012F5F3F4F4FEF6FEF0E94580BE2
:1018E0008A818093EE01F8018481813051F028F0E3
:1018F000823061F44091EE010AC08091EE0140E037
:1019000007C06091EE0140E080E003C040E080E06D
:1019100060E00E94030CF801848190E0019663E08E
:1019200070E00E940B2F84830F900F900F90DF9137
:10193000CF911F910F910895AF92BF92CF92DF92F6
:10194000EF92FF920F931F93CF93DF9300D01F92DC
:10195000CDB7DEB7182FF62E042FE22E9091080394
:1019600090FF7EC0E92FE695AE2FB0E0A258BE4FA3
:101970008C91809337029E7F923061F49E012F5F9D
:101980003F4F812F0E94580B4B8169818A810E94B1
:10199000030C43C0823019F400910B033EC0863023
:1019A00019F41091090339C08930D9F38931A9F5A7
:1019B000E9518E2F8170D82EE695F0E0E758FC4F64
:1019C000A590B490C12CBB2460911401C61618F5E3
:1019D0002C2D30E0A29EC001A39E900DB29E900DD2
:1019E000112470E00E94F72E812FD11002C0860FC3
:1019F00001C0861B90911201290F311DA901440FCE
:101A0000551F240F351F235F3C4F402F6F2D0E9421
:101A1000580BC394D9CF0E94DF0B80910903181390
:101A200008C080910A03F81204C080910B030817C4
:101A300029F0809139028260809339021093090362
:101A4000F0920A0300930B03EE2051F0609108031B
:101A50007091090380910A0390910B030E947D0B02
:101A60000F900F900F90DF91CF911F910F91FF90EA
:101A7000EF90DF90CF90BF90AF900895E8E0F3E053
:101A80009181282F4381628188E0890F0C949C0CFE
:101A900081E00C943E0DE8E0F3E09181282F438132
:101AA000628188EF890F0C949C0C81E00C944B0DA3
:101AB000E8E0F3E0628121E1620F08F46FEF282F84
:101AC000438181810C949C0C81E00C94580DE8E0DA
:101AD000F3E0628121E1621B08F460E0282F43817A
:101AE00081810C949C0C81E00C94670DE8E0F3E09C
:101AF000438121E1420F08F44FEF282F6281818159
:101B00000C949C0C81E00C94760DE8E0F3E04381AA
:101B100021E1421B08F440E0282F628181810C946E
:101B20009C0C81E00C94850D21E00C949C0C20E031
:101B30000C949C0CFF920F931F93CF93DF93EC01B7
:101B4000F12C0FEF10E060911401F616F0F4809183
:101B500012012F2D30E0280F311DC901880F991F68
:101B6000280F391F235F3C4F70E0C8010E940B2FE4
:101B7000962F8C8140910B0360910A03F99E800D92
:101B800011240E94580BF394DECF0E94DF0B9A8140
:101B90008C8190FF02C08F5F01C081508C83DF91E8
:101BA000CF911F910F91FF9008958F929F92AF92C6
:101BB000BF92CF92DF92EF92FF920F931F93CF933A
:101BC000DF93EC018A8180FF03C0BB24BA9402C07A
:101BD000BB24B3948C8181110DC081E0B81206C082
:101BE0008091140181508093F00102C01092F001A5
:101BF00081E08C83A12C4CE0942E80911401A816D6
:101C000008F044C080911201CA2CD12C8601080F23
:101C1000111DC801880F991F080F191F035F1C4F62
:101C2000F80111821082128234E0E32EF12C812C13
:101C30008091F001880D8D302CF0692D0E94E92EE5
:101C4000892F05C087FF03C090911401890F082ECA
:101C5000000C990BC816D90691F480910B038E9D48
:101C6000A0018F9D500D1124559547955595479589
:101C7000980160910A03809109030E94580B8B0C14
:101C8000F1E0EF1AF108A1F6A394B7CF0E94DF0BA1
:101C90008091F00191E0B9120EC0811107C08091CE
:101CA000140181508093F0011C820FC081508093F9
:101CB000F001BC820AC090E001966091140170E0CE
:101CC0000E940B2F8093F0018C83DF91CF911F91A5
:101CD0000F91FF90EF90DF90CF90BF90AF909F90CB
:101CE0008F9008951F93CF93DF93EC018C81811126
:101CF00009C081E08C831092EF0192E090930F0174
:101D000080930E018091120190911301891770F454
:101D1000E82FF0E09F01220F331FE20FF31FE35F74
:101D2000FC4F1182108212828F5FF0CF10E0609121
:101D300014011617C0F5E12FF0E070E0CF010E940A
:101D40000B2F20911201820F2091EF01022E000C27
:101D5000330B90E0E217F307CCF020910F01022E35
:101D6000000C330B2E173F078CF09C01220F331F02
:101D7000820F931F9C01235F3C4F40910B036091A6
:101D80000A03809109030E94580B0BC0FC01EE0F5F
:101D9000FF1F8E0F9F1FFC01E35FFC4F118210821B
:101DA00012821F5FC4CF0E94DF0B80910E01209131
:101DB000EF01280F2093EF0190910F01980F90935E
:101DC0000F0119165CF4022E000C330B4091140124
:101DD00050E0415051092417350734F08195809324
:101DE0000E01813009F41C82DF91CF911F9108957B
:101DF0008F929F92AF92BF92CF92DF92EF92FF921B
:101E00000F931F93CF93DF938C01FC014481C42F68
:101E1000D0E09E01DE010E944F2F9B01AC010E9489
:101E2000652F6B017C01E0E2F0E0EC1BFD0BA5E50A
:101E3000B0E09B01AC010E94652F4B015C019F014A
:101E4000DF010E94472F9B01AC010E94702F9B0174
:101E5000AC012C0D3D1D4E1D5F1DC501B4010E943E
:101E60001F2FC22FD22F2A3228F4F3E02F9F900188
:101E700011240DC025E530E02C1B3109C901880F64
:101E8000991F280F391F37FF02C02F5F3F4F35952D
:101E90002795C22FC095F12C85E5E82EED1A80918B
:101EA0001401F816C8F4F1FC02C08E2D01C08D2F6C
:101EB000909112012F2D30E0290F311DA901440FFF
:101EC000551F240F351F235F3C4F4C2F60910A0391
:101ED0000E94580BF394E3CF0E94DF0BF80184813A
:101EE000811102C091E003C0803219F49FEF9093FA
:101EF0000D0190910D01890FF8018483DF91CF913D
:101F00001F910F91FF90EF90DF90CF90BF90AF9017
:101F10009F908F9008950F931F93CF93DF93EC01C1
:101F200000E010E080911401282F30E00217130721
:101F300024F5909112019801290F311DA901440F38
:101F4000551F240F351F235F3C4F869590E04C8131
:101F5000081719071CF4442331F002C0411103C0D3
:101F600040910B0301C040E060910A038091090396
:101F70000E94580B0F5F1F4FD5CF0E94DF0B8C8143
:101F800090E00196817099278C83DF91CF911F910A
:101F90000F9108957F928F929F92AF92BF92CF92AE
:101FA000DF92EF92FF920F931F93CF93DF93FC0189
:101FB0008280748081E08483E9E7F2E09490E8EF26
:101FC000F2E0E491A12CF5E0BF2ECC24CA94D12CF0
:101FD000E9190E2F10E080911401A81608F0A2C094
:101FE000EA2CF12C22E0281568F0BE9CF001BF9C81
:101FF000F00D1124EC50FE4F8091090380838091F5
:102000000A03818371100AC0BE9CF001BF9CF00DD1
:102010001124EC50FE4F138212826AC0BE9CE00174
:10202000BF9CD00D1124CC50DE4F8B818823F9F05A
:1020300081508B832FEF829FC00111246C8170E04F
:102040000E94F72EFB01FF27E758FD4F8491E82FF0
:10205000E9192FEFE29FC0011124B8010E94F72E69
:1020600080910B03689FB00111247A8341C00E94C4
:10207000C42F20910B032695215830E0A901440F6D
:10208000551F322F2227240F351F232F3327821766
:10209000930774F582E0881588F40E94C42FB60176
:1020A0000E940B2F88830E94C42F20910A0326953B
:1020B000622F70E00E940B2F280F2983BE9CF00135
:1020C000BF9CF00D1124EC50FE4F128280910B0347
:1020D000843120F0893C18F088EC01C084E1BE9C7A
:1020E000F001BF9CF00D1124EC50FE4F84838383DC
:1020F000809112019701280F311DC901880F991F86
:10210000280F391F235F3C4FBE9CF001BF9CF00D90
:102110001124EC50FE4F4281618180810E94580B56
:10212000A39459CFDF91CF911F910F91FF90EF9022
:10213000DF90CF90BF90AF909F908F907F900C9446
:10214000DF0B80913902089510923902089525E03D
:10215000E8E0F3E0DC0101900D922A95E1F720918F
:1021600037023091380240913902FC0125833683D1
:102170004783089560910803669570E04BE050E056
:1021800085E191E00E94D42F892B19F481E080939E
:1021900038020E94CD2790933102809330028091C3
:1021A00039028460809339020895E7E3F2E01182F6
:1021B00082818460828308959091080390FF3AC0E1
:1021C0009170811102C0926006C08B3210F094654C
:1021D00002C0880F982B9093080380913902816088
:1021E00080933902662351F06091080370910903CE
:1021F00080910A0390910B030E947D0B609108036C
:10220000669570E04BE050E085E191E00E94D42FAC
:10221000892B19F00E94D51002C00E94BA1081E0EB
:102220008093330240910B0360910A03809109036C
:102230000C94970D0895682F90910803969581E06E
:10224000890F8B3208F081E00C94DC1081E00C9453
:102250001B11682F9091080396958FEF890F09F451
:102260008AE20C94DC1081E00C94291161E00C945A
:10227000DC10E8E0F3E080818160808386950C9437
:10228000361160E00C94DC10E8E0F3E080818E7F92
:10229000808360817181828193810E947D0B0E9485
:1022A000D510E7E3F2E08281816082832FEF80E73F
:1022B00092E0215080409040E1F700C000000C9473
:1022C000DF0B8091080380FD0C9444110C943911AC
:1022D000E8E0F3E080818E7F80830E94D510E7E301
:1022E000F2E08281816082832FEF80E792E02150CB
:1022F00080409040E1F700C000000C94DF0B1F937A
:10230000CF93DF93EC01162F8F8180FF0FC0888160
:1023100080FF0AC080910803816080930803888150
:1023200086950E94DC1002C00E9468118F8181FF97
:1023300006C0212F4B816A8189810E949C0C8F816C
:1023400082FF08C08E81882319F00E94BA1002C053
:102350000E94D5108F8183FF03C081E080933302F8
:10236000DF91CF911F91089580913602811133C082
:102370000E94BE25811104C00E945F260E948F0B1F
:102380000E94790B609308037093090380930A03FA
:1023900090930B03809139028360809339026E7FA2
:1023A00061F40E948F0B0E94790B60930803709375
:1023B000090380930A0390930B030E94660B0E940B
:1023C000D5108091080380FF03C086950E944111BB
:1023D00081E0809336020895EF92FF920F931F934E
:1023E000CF93DF9380913802882309F4BBC080919A
:1023F0003702E0910803E695E81BE0933202823051
:1024000049F4F0E0EB58FD4FE491CE2FD0E008E323
:102410001CE059C0863049F4F0E0EE58FD4FE491DD
:10242000CE2FD0E00CE41CE04EC0893051F4E6958C
:10243000F0E0E159FD4FE491CE2FD0E00AE91DE034
:1024400042C08F3051F4E695F0E0E459FD4FE4913D
:10245000CE2FD0E005ED1DE036C0853149F4F0E027
:10246000E759FD4FE491CE2FD0E002E71EE02BC0EC
:102470008831D9F0833239F4E7E6F2E0C591D4919E
:102480000CE51CE020C08432A9F08532C1F48E2F07
:1024900063E00E94DD2EE92FF0E0EC59FD4FE4915E
:1024A000CE2FD0E00AEC1FE00EC0C8E2D0E008EF6B
:1024B0001EE009C0C4EFD1E00BE81FE004C0C0ED8E
:1024C000D7E00FE41BE080913302882361F0109283
:1024D00033020E94CD2790933102809330021092F4
:1024E0003502109234020E94CD27E0913002F09123
:1024F00031029C012E1B3F0B2F3F3F4798F5209147
:10250000F3012223B1F01092F3012091F1013091F7
:10251000F201821B930B8F3F9F4758F4205D3A488E
:102520003093F2012093F101809139028860809309
:102530003902E0903402F0903502EC0FFD1FF09369
:102540003102E093300280E392E0F8010995809136
:10255000340290913502892B29F4EF2819F081E09B
:102560008093F301DF91CF911F910F91FF90EF9036
:102570000895882311F0FA0101C0FB010994CF935B
:10258000DF93C82FD62F0E94A60B8C1740F00E9415
:10259000A60B8D1720F4DF91CF910C9426118C2F70
:1025A000DF91CF910C9436111F93CF93DF93FB01F2
:1025B00012811111C1C0EC010E94FD248272CD3C38
:1025C000FCE5DF0709F49AC008F043C0C73CECE51E
:1025D000DE0709F47FC0D8F4C43C9CE5D90709F4B0
:1025E0006DC038F4C33CDC4509F0A5C00E94611100
:1025F000A3C0C53C9CE5D90709F465C0C63CDC45D1
:1026000009F099C045E55DE068E47DE060C0CA3C42
:10261000FCE5DF0709F468C070F4C83CECE5DE07B0
:1026200009F45DC0C93CDC4509F085C044E65DE0C5
:1026300063E77DE04CC0CB3C9CE5D90709F459C069
:10264000CC3CDC4509F077C049ED5BE062EC7BE017
:102650003EC0C23DFCE5DF0709F45DC098F4CF3C05
:102660009CE5D90709F451C008F44DC0C03DFCE514
:10267000DF0709F44DC0C13DDC4509F05CC06EE0E8
:1026800089E056C0C53D9CE5D90709F44AC058F415
:10269000C33DFCE5DF0709F441C0C43DDC4509F05A
:1026A0004AC088E142C0C63D9CE5D907E9F1CE3574
:1026B000DD4509F040C06AE285E23AC043E351E1FA
:1026C00066E271E104C046E251E163E371E10E9418
:1026D000B91232C048E45DE065E57DE0F8CF43E73C
:1026E0005DE064E67DE0F3CF41E95DE062E87DE036
:1026F000EECF42E85DE061E97DE0E9CF42EC5BE0EE
:1027000069ED7BE0E4CF81E010C065E082E010C0BD
:1027100068E086E00DC064E18FE00AC067E185E112
:1027200007C062E289E104C083E20E94361104C05E
:102730000E94BF1201C011E0812FDF91CF911F9144
:102740000895809131038170089586E090E00C94A3
:10275000E12F682F86E090E00C94F52F80913103F3
:1027600084708963809331030C94A91380913103A1
:1027700086958695869508950E94BE25811104C090
:102780000E945F260E94AE130E94A513809331031E
:10279000282F26952695269530E02830310524F0FF
:1027A00087708863809331038091310380FF04C078
:1027B00086958695869501C080E00C94CD14209175
:1027C0003103822F869586958695482F50E04730B5
:1027D000510554F48F5F982F990F990F990F822FFD
:1027E0008770892B809331038091310381608093BE
:1027F00031030E94A91380913103869586958695B1
:102800000C94CD1480913103982F969596959695BA
:10281000A1F0915E990F990F990F8770892B809382
:102820003103887F91E009F490E08091310390FBBF
:1028300080F9809331030E94A9138091310386951A
:10284000869586950C94CD148091310380FD13C03C
:10285000816080933103813019F489E080933103E2
:10286000809131030E94A91380913103869586954A
:1028700086950C94CD1408958091310380FF08C093
:102880008E7F809331030E94A91380E00C94CD14B5
:1028900008958091310380FD0C943C140C94241411
:1028A00090913103892F8695869586958F5F8F71DC
:1028B0009770883038F4880F880F880F892B8093A1
:1028C000310302C09093310380913103887F91E0FE
:1028D00009F490E08091310390FB80F980933103FB
:1028E0000E94A913809131038695869586950C9454
:1028F000CD14883008F087E0909131039770282F2D
:10290000220F220F220F922B90933103987F21E008
:1029100009F420E09091310320FB90F9909331036A
:102920000C94CD140E947914809131030C94A91356
:102930009C01FB018281882349F12E3BFCE53F0786
:10294000C9F040F42C3BECE53E0769F02D3B3C45DB
:1029500061F00895203C9CE5390791F070F0213C2E
:102960003C4589F0089587E001C080E00E94921400
:1029700080E008950E940214FBCF0E94DF13F8CF7D
:102980000E944914F5CF0E945014F2CF81E00895BF
:10299000259A2D9808952D980895CF92DF92EF9261
:1029A000FF92CF93C82F883050F4811109C08091D5
:1029B00080008F77809380000E94CB1406C0C7E010
:1029C000809180008068809380002C2F30E0AFEFF2
:1029D000BFEF0E944F2F27E030E040E050E00E9420
:1029E0001F2FB42FA32F922F8827492F5A2F6B2FD9
:1029F0007727CA014C3724E1520728F469E070E0D8
:102A00000E94F72E29C0DB01CA018A50974DAF4FB3
:102A1000BF4F6627782F892F9A2F25EF38E241E0A4
:102A200050E00E941F2F69017A01CA01B9010E947A
:102A3000CD2E9B01AC01C701B6010E94CD2EBB2754
:102A4000A92F982F872F009721E0A207B10511F039
:102A5000BC0102C06FEF7FEF709389006093880024
:102A6000CF91FF90EF90DF90CF90089508950E944E
:102A7000C81482E88093800089E1809381008FEF01
:102A80009FEF90938700809386000C94BC13249A48
:102A900025B12F7E35B130614FB7F894FC01CB01E1
:102AA000880F991F680F791F6E0F7F1FE617F707B2
:102AB00089F0819198E035B9000000C087FF25B901
:102AC000880F000000C000C000C025B900C09A9562
:102AD00091F7ECCF4FBF8FE594E00197F1F700C07D
:102AE000000008950F931F93CF93DF93C42FD22F2D
:102AF000FC0182818823C9F040933C020E943F2759
:102B000090933B0280933A0280E28C0F883008F069
:102B100057C0C77081E001C0880FCA95EAF7DF91FE
:102B2000CF911F910F910C94811C80913C0248130E
:102B300030C080913A0290913B020E945727883C16
:102B4000910538F510E21D0FCD17B9F080E28C0F1A
:102B5000883040F4C77081E001C0880FCA95EAF759
:102B60000E94881C183028F581E09D2F977001C0C5
:102B7000880F9A95EAF70E94811C802F0E94781C8A
:102B80001830F0F4D77081E001C0880FDA95EAF7C9
:102B90000AC080E28C0F883098F4C77081E001C0D1
:102BA000880FCA95EAF7DF91CF911F910F910C948E
:102BB000881C802FDF91CF911F910F910C94781C6E
:102BC000DF91CF911F910F9108950F939C01CB013D
:102BD000243F4CE5340731F188F4293DFCE53F07FB
:102BE000D9F02A3D4CE5340779F1283D3C45A9F55B
:102BF00006E221EE41EE68ED7CE52BC0263FFCE5C8
:102C00003F07E1F0A8F0273F3C4539F507E225EE04
:102C100046EE67EF7CE51DC007E225EE45EE69ED67
:102C20007CE517C006E221EE40EE64EF7CE511C0C2
:102C300007E225EE44EE65EF7CE50BC006E221EEEF
:102C400042EE66EF7CE505C008E221E045EE6AED64
:102C50007CE50E94721580E008C0FC018281882317
:102C600019F010923C0201C081E00F910895CF93BA
:102C7000DF93EC01FB018281882309F41FC1C2307C
:102C8000FCE5DF0708F41BC1C6319CE5D90738F025
:102C90009E012B5F3C452930310508F010C10E9490
:102CA000D1259093F1028093F002C031ECE5DE076C
:102CB00009F4C3C008F041C0C8308CE5D80709F456
:102CC0009AC0F0F4C430ECE5DE0709F487C068F47C
:102CD000C2308CE5D80709F477C0C330DC4509F071
:102CE000E3C08091F002826076C0C630ECE5DE077A
:102CF00009F46EC008F07BC08091F00288606BC060
:102D0000CC308CE5D80709F485C068F4CA30ECE50E
:102D1000DE0709F474C008F079C00E940E1F80918C
:102D2000F002806858C0CE308CE5D80709F476C030
:102D300008F07FC08091F0028BC0CC3FECE5DE074D
:102D400009F44FC018F5C3318CE5D80709F47DC0EC
:102D500078F4C131ECE5DE0709F473C0C231DC451B
:102D600009F0A2C00E940E1F8091F0028F7733C03D
:102D7000C5318CE5D80709F472C008F486C0CB3F92
:102D8000DC4509F091C08091F1023EC0C115FDE51E
:102D9000DF0709F45FC058F4CE3F9CE5D90709F47A
:102DA00044C008F43FC08091F10282602DC0C2305F
:102DB000FDE5DF0709F475C008F45DC0C330DD45EB
:102DC00009F072C080E06EC08091F002816003C0A3
:102DD0008091F00280618093F00266C08091F002E1
:102DE00011C08091F10282608093F1025DC08091F8
:102DF000F0028062F0CF8091F0028064ECCF80918D
:102E0000F00288608460E7CF8160EECF8091F002AD
:102E10008E7FE1CF8091F0028D7FDDCF8091F00237
:102E2000877FD9CF8091F10218C08091F1028D7F08
:102E3000DBCF8091F0028F7ECECF8091F0028F7D2C
:102E4000CACF8091F0028F7BC6CF8091F002877F3E
:102E50008B7FC1CF8091F1028D7F8E7FC5CF809116
:102E6000F00282FB222720F991E0922790FB82F961
:102E700090FB83F9B0CF8091F102982F90959170DB
:102E80008E7F892B90FB81F9AFCF0E940E1F80911E
:102E9000F00287FB222720F991E0922790FB87F927
:102EA0009ACF81E00E9461268091F0029091F10218
:102EB0000E94E2250E940E1F80E001C081E0DF91A8
:102EC000CF910895CF93DF9386319C4541F5EB0177
:102ED0000E94FD24982F8A81209130013091310188
:102EE000882379F09A7A81E009F480E080933D02AA
:102EF000911102C069E201C065E3C9010E94A826E0
:102F00000AC080913D02811102C069E201C065E3FF
:102F1000C9010E94AA260E944F2580E001C081E0DD
:102F2000DF91CF91089562E070E080E291E00C942F
:102F3000751862E070E080E291E00C947E180E94C7
:102F4000A110882361F08AE492E00E94A71081E03A
:102F500090E00E945719892B11F40C94A410089545
:102F600080914902883039F460E08AE492E00E945E
:102F70007F11109249020895CF93DF93D62FC72F68
:102F80000E949F1780E090E00E945719892B41F51D
:102F9000ED2FFC2F80E090E0DC01AC5BBD4F2C916D
:102FA0002193019685309105B9F70E94A1138823DA
:102FB00019F00E94B61301C080E0809343020E9482
:102FC000B227DC01CB010296A11DB11D80933F0207
:102FD00090934002A0934102B093420281E001C06D
:102FE00080E0DF91CF910895CF93DF93D62FC72F45
:102FF0000E94B01760913F0270914002809141029F
:10300000909142020E949527ED2FFC2F80E090E0E6
:103010002191DC01AC5BBD4F2C930196853091056D
:10302000B9F780914302DF91CF910C94CD148EE1DA
:10303000489B02C08150E1F7489BFECF0895589805
:1030400080E28A95F1F7589A0895FC012AE02A95C2
:10305000F1F790E020E080E031E0261779F040E1E0
:103060004A95F1F7880F489B02C08160932700C002
:10307000000040E14A95F1F72F5FEFCF20E12A955C
:10308000F1F729B100C0000030E13A95F1F7217065
:1030900092272081920F90830895EF92FF920F93D1
:1030A0001F93CF93DF931F92CDB7DEB719828C01A8
:1030B0007C01E60EF11C0E151F0559F00E94171831
:1030C00068E0CE0101960E942518F80181938F01D6
:1030D000F2CF81E09981911180E00F90DF91CF9143
:1030E0001F910F91FF90EF90089590935402809359
:1030F000530260935202509A589A08959093540242
:1031000080935302609352025098589AE89AE9E6E5
:10311000F0E080818C7F80830895615091E001C050
:10312000990F6A95EAF720E031E0992361F0492F81
:10313000482319F0589A232701C0589840E24A952D
:10314000F1F79695F2CF222311F0589A01C05898C2
:1031500080E28A95F1F758980895FF920F931F9394
:10316000CF93DF93EC018C01060F111DC017D1071F
:1031700041F0F9900E941F1868E08F2D0E948D1871
:10318000F5CFDF91CF911F910F91FF9008951F927E
:103190000F920FB60F9211240F931F932F933F930B
:1031A0004F935F936F937F938F939F93AF93BF934F
:1031B000EF93FF93CF93DF931F92CDB7DEB71982C2
:1031C0000E94171867E0CE0101960E942518382F3B
:1031D000369536953695932F96959570232F2570B5
:1031E000920F292F2370969596958770920F8913C9
:1031F00048C08981811145C080915202831708F42B
:1032000040C080E18A95F1F7589A509AA2E0AA95B9
:10321000F1F700C00091530210915402B8E03B9FB7
:10322000000D111D11245898F8016581662321F0C5
:10323000868197810E94AD180E941F18F0E1FA95CF
:10324000F1F758985098589A80E18A95F1F7D8018B
:1032500012966C911297662369F013968D919C914A
:1032600014970E944D18D801ED91FC91811105C071
:1032700082E004C0D801ED91FC9188E080830E9437
:1032800017180F90DF91CF91FF91EF91BF91AF9100
:103290009F918F917F916F915F914F913F912F916E
:1032A0001F910F910F900FBE0F901F9018950F93C5
:1032B0001F93CF93DF932091520230E028173907F4
:1032C0000CF471C09C0193E0220F331F9A95E1F733
:1032D000C0915302D0915402C20FD31FF894509A58
:1032E000589845E04A95F1F70000982F969595700B
:1032F0008570890F982F937086958695890F89011F
:10330000082B0E941F1884E08A95F1F700C067E03F
:10331000802F0E948D1840E14A95F1F75098589AF5
:10332000489902C000C0FCCF87E090E0489B0EC0E7
:10333000019751F4509A589AE881F98181E080838D
:10334000789481E090E031C000C0F0CF6D816623B9
:1033500081F08E819F810E944D1881110AC0509A80
:10336000589AE881F98182E08083789482E090E045
:103370001CC00E94171880E28A95F1F75898509A5D
:1033800040E14A95F1F76A81662321F08B819C81A7
:103390000E94AD180E941F18E881F981108278946C
:1033A00080E090E002C084E090E0DF91CF911F9137
:1033B0000F91089590935A02809359020895E091D5
:1033C0005902F0915A02309721F00190F081E02DDE
:1033D000099480E00895E0915902F0915A023097E3
:1033E00021F00280F381E02D09940895E0915902C3
:1033F000F0915A02309739F022E0DC012C930480DE
:10340000F581E02D099408952091570230915802DA
:103410002817390771F09093580280935702E09172
:103420005902F0915A02309721F00680F781E02D81
:1034300009940895209155023091560228173907B2
:1034400071F09093560280935502E0915902F091E9
:103450005A02309721F00084F185E02D09940895F7
:103460000E944B2760936A0270936B0280936C02F8
:1034700090936D0260936602709367028093680276
:1034800090936902089585B7806885BF85B7806885
:1034900085BF08950C94F50708950C944C1A0C946C
:1034A0004C1A0C944F1A0C944C1A0C94531A0C94FA
:1034B0004C1A0E94431A8CEB95E20E94FA270E9454
:1034C000571A0C94551A0E944D1A0C944C1A0E94CB
:1034D00036270E948C270E947F060E94BC130E9400
:1034E000B4110C94511A9F92AF92BF92CF92DF9277
:1034F000EF92FF920F931F93CF93DF93CDB7DEB779
:103500002A970FB6F894DEBF0FBECDBF0E942C07DE
:1035100081110E94301A8CE5A82E82E0B82E00E0BE
:1035200010E0902E802F0E944D06D82EF501C190FC
:103530005F01C826B1F40F5F1F4F0A30110589F7EC
:103540008FEF89838A831B820E943F278160782FB7
:103550009D838C8349815A816B818D810E94151BCB
:103560002FC08091E40281FD0E945306E12CFF24CC
:10357000F3948C2D8F21F1F00E944A1A882399F040
:10358000EE829F82DF2081E009F480E088870E943C
:103590003F278160782F9A8789874E815F81688570
:1035A0008A850E94151BF801E45AFD4F8081F82698
:1035B000F08206C0E394FF0CF6E0EF12DACFBBCF47
:1035C0000E94EC110E9436150E949A090E94DF1990
:1035D00090915B028917B9F00E94DF1980935B021A
:1035E0002A960FB6F894DEBF0FBECDBFDF91CF9104
:1035F0001F910F91FF90EF90DF90CF90BF90AF9011
:103600009F900C9411042A960FB6F894DEBF0FBE5B
:10361000CDBFDF91CF911F910F91FF90EF90DF9081
:10362000CF90BF90AF909F900895DF92EF92FF925E
:103630000F931F93CF93DF93CDB7DEB72B970FB6C2
:10364000F894DEBF0FBECDBFF42E052F162FE72E48
:10365000D82E61110E941D25FE01319686E0DF0102
:103660001D928A95E9F77E2D4F2D502F612F8D2DBC
:103670009E810E94C7212B960FB6F894DEBF0FBE25
:10368000CDBFDF91CF911F910F91FF90EF90DF9011
:103690000895FC01808191810E949D240895CF931B
:1036A000882309F4A4C0C82F8238C1F40E94DF190E
:1036B00081FD9DC069E380913001909131010E94AC
:1036C000A8260E944F252FEF81EE94E021508040E4
:1036D0009040E1F700C0000069E319C0833801F5AC
:1036E0000E94DF1980FD83C063E5809130019091D5
:1036F00031010E94A8260E944F252FEF81EE94E011
:10370000215080409040E1F700C0000063E58091C7
:103710003001909131010E94AA26CF910C944F253F
:103720008438C1F40E94DF1982FD61C067E4809192
:103730003001909131010E94A8260E944F252FEF61
:1037400081EE94E0215080409040E1F700C00000FD
:1037500067E4DDCF8CEF8C0F813AD0F46C2F809131
:103760003001909131010E947226882349F06C2F1C
:1037700080913001909131010E94AA260E944F252C
:103780006C2F80913001909131010E94A826C5CF05
:1037900080E28C0F883048F4C77081E001C0880F48
:1037A000CA95EAF70E940025B8CFEBE5EC0FE330AD
:1037B00040F4F0E0E952FE4F808190E0CF910C940C
:1037C000041AE8E5EC0FE73150F4F0E0EE0FFF1FCC
:1037D000E755FE4F80819181CF910C941A1ACD3E0E
:1037E00030F08C2F0E94AA08CF910C947C09CF91C5
:1037F0000895882309F464C0823879F40E94DF199F
:1038000081FF5EC069E380913001909131010E9497
:10381000A8260E944F2569E310C08338B1F40E94A6
:10382000DF1980FF4DC063E5809130019091310137
:103830000E94A8260E944F2563E580913001909157
:1038400031010E94AA260C944F25843879F40E94F5
:10385000DF1982FF35C067E480913001909131011A
:103860000E94A8260E944F2567E4E7CF9CEF980F9F
:10387000913A10F4682FE1CF90E2980F983050F40D
:10388000877091E001C0990F8A95EAF7892F0E940D
:103890000625D9CF9BE5980F933020F480E090E087
:1038A0000C94041A98E5980F973120F480E090E08A
:1038B0000C941A1A8D3E20F00E9405090C947C0984
:1038C00008951F93CF93DF93182FEB010E944F1B96
:1038D000209741F08FE99FE00197F1F700C00000C9
:1038E0002197F6CF812FDF91CF911F910C94F91B77
:1038F000893319F060E070E002C060E570E00C947C
:10390000611C882321F00E9400250C944F25089506
:10391000882321F00E9406250C944F250895CF920C
:10392000DF92EF92FF920F931F93CF93DF937C016F
:10393000062FC72FFC01D281158112951F700E949E
:10394000D524882399F0DD2389F08C2F807F803463
:1039500021F080E2800F883048F082E00E949F25AD
:103960000E94D52491E0D82ED92601C0D12CCC2E8E
:10397000C2948FE0C8228C2D90E0FC01EA5AFF4FE0
:103980000C94412F8C2F807FCF70882311F0C2952B
:10399000C07FDD2399F0CC2309F48DC180E2800F34
:1039A000883010F0011104C08C2F0E94002503C044
:1039B0008C2F0E9410250E944F257DC1802F0E94D0
:1039C000F91BCC2309F49CC180E2800F883010F0F1
:1039D000011104C08C2F0E94062503C08C2F0E9469
:1039E00016250E944F258CC18C2F807FCF7080328E
:1039F00011F0C295C07F002319F00130C9F022C038
:103A0000DD2371F0112341F0113031F40E94302593
:103A10008C2B0E94382574C10E9430258C2B1DC030
:103A2000112319F0113009F46BC10E94452525C0FE
:103A3000DD2321F0163008F063C10EC0153008F008
:103A40005FC11BC0DD2361F0112331F0F7018581D7
:103A500080FF31C18F7085838C2F0E94811C50C1E3
:103A6000112359F0093309F037C1FFEF27EE83E046
:103A7000F15020408040E1F72DC18C2F0E94881C1E
:103A80003FC18C2F86958695837019F0813061F047
:103A900037C1DD2321F0802F9C2F937002C080E07E
:103AA00090E00E94041A34C1DD2321F0802F9C2F66
:103AB000937002C080E090E00E941A1A29C1802F02
:103AC000DD2319F00E94AA0802C00E9405090E9485
:103AD0007C091EC18C2F837009F045C0D11114C11F
:103AE000402F429546954770440F440F602F6F70EA
:103AF000862F90E0A0E0B0E0042E04C0880F991F4C
:103B0000AA1FBB1F0A94D2F704FF10C00FE010E0F9
:103B100020E030E004C0000F111F221F331F4A9520
:103B2000D2F7009510952095309503C000E010E085
:103B30009801C695C695C370BC01CD01602B712B51
:103B4000822B932BC23049F058F4C13019F00E94F7
:103B50001823DAC00E940623D7C00E942A23D4C0AB
:103B60000E940423D1C0DD2319F08C2F817001C085
:103B70008695882309F4C8C0402F42954695477022
:103B8000440F440F602F6F70862F90E0A0E0B0E0EC
:103B9000042E04C0880F991FAA1FBB1F0A94D2F7D6
:103BA00004FF10C00FE010E020E030E004C0000F80
:103BB000111F221F331F4A95D2F7009510952095AB
:103BC000309503C000E010E09801C695C695C3701B
:103BD000BC01CD01602B712B822B932BC23049F09D
:103BE00058F4C13019F00E94DD238EC00E94CB230F
:103BF0008BC00E94EF2388C00E943E2385C0CF70F7
:103C0000DD2339F08C2F0E946423802F0E94811CB9
:103C10007BC0802F0E94881C8C2F0E94852374C03B
:103C2000023F01F128F4003F41F0013FA1F03FC005
:103C3000033FF9F0043F39F13AC0DD2341F015307C
:103C400008F05EC08C2F8F710E94AA2359C01630D5
:103C500008F056C0F7CFDD2339F08C2F8F710E940A
:103C600064234EC0DD23C9F38C2F8F710E948523FE
:103C700047C0DD2329F08C2F8F710E944F2340C055
:103C80000E944A233DC0DD2349F0CF718C2F0E9452
:103C9000642363E08C2F0E94842532C081E00E945F
:103CA0009F25123068F182E00E949F2529C0DD2304
:103CB00031F0112391F2802F0E944F1B21C011235C
:103CC00099F2093349F49FEFE7EEF3E09150E040B9
:103CD000F040E1F700C00000802F0E94F91B10C0E7
:103CE0004C2F4F70602FC7010E941A040E9475224A
:103CF0000FC04C2F4F70602FC7010E941D0408C0D9
:103D000088EF8C0D843020F40E94DF190E9411048A
:103D1000DD20C9F00E94D12480FD15C0F701128278
:103D20000E94CB240E946423C7010E94C41E0E94EB
:103D3000CB24DF91CF911F910F91FF90EF90DF90F7
:103D4000CF900C948523DF91CF911F910F91FF901D
:103D5000EF90DF90CF9008950F931F93CF93DF9351
:103D6000EC01688179818A810E94A8248C010E94DB
:103D700001240E94F222B801CE010E948F1CDF9123
:103D8000CF911F910F910895CF93DF93EC0198810C
:103D900089812B813C81232B31F08F3F31F481E0ED
:103DA0009F3F19F403C081E001C080E080FD19C08D
:103DB000CE010E94AA0381110CC00E94D524882341
:103DC00081F08A81882369F082E0DF91CF910C94A1
:103DD0009F25CE010E94AC1ECE01DF91CF910C94A5
:103DE0008703DF91CF91089580E090E00E94041A4C
:103DF00080E090E00E941A1A0E941D250E942D2545
:103E00000E944F250E94AD0A0C947C0980913001DC
:103E1000909131010E94AC260C94F41E0E940D2555
:103E20000C94061FE92FE295EF704E2F50E0FA0137
:103E30003297EE30F105B0F4EA59FF4F0C94412F60
:103E4000803F91F018F4883E68F40EC0843F51F42E
:103E50000BC0883E48F0813F29F406C093FB8827B9
:103E600080F9089580E0089581E008950E949D24DE
:103E70000E94121F0895CF93DF9300D000D01F92AD
:103E8000CDB7DEB70F900F900F900F900F90DF918E
:103E9000CF910895CF93DF9300D000D000D0CDB75D
:103EA000DEB726960FB6F894DEBF0FBECDBFDF910A
:103EB000CF9108951F93CF93DF93C0916F0216E0C7
:103EC00080917002C81799F0D0E01C9FF0011D9FEF
:103ED000F00D1124EF58FD4F4081518162817381B3
:103EE000848195810E944A1F2196C770E9CFDF9196
:103EF000CF911F9108954091A1025091A20260912B
:103F0000A3027091A4028091A5029091A6020C9444
:103F10004A1F0F931F93CF93DF938091A602829540
:103F20008F7009F05DC08091A302882309F458C006
:103F300080916F02109170026091A1027091A202B3
:103F4000C091A402D091A50291E06F3F09F090E0EA
:103F5000292F06E0811709F443C0209721F07F3F05
:103F600021F030E003C031E001C0322F90E030FD9D
:103F700034C0089FF001099FF00D1124DF01AF58F4
:103F8000BD4F11963C911197371327C03C913613C2
:103F900024C012963C91129731111FC013964D9177
:103FA0005C9114974C1B5D0B483C5105B0F480911B
:103FB000A6028F7080618093A602EA58FD4F80812F
:103FC0008F708061808381EA92E00E94C41EDF913D
:103FD000CF911F910F910C945A1F01968770BACF01
:103FE000DF91CF911F910F9108959F92AF92BF9251
:103FF000CF92DF92EF92FF920F931F93CF93DF93B5
:10400000CDB7DEB761970FB6F894DEBF0FBECDBF58
:104010008C0185E0F801DE011D9601900D928A95D4
:10402000E1F7F80140815181E2809091A102609115
:10403000A2022091A4023091A5022115310531F090
:104040006F3F31F481E09F3F19F403C081E001C06C
:1040500080E0F82FF1709F2E80FD46C1F801A3800B
:10406000B48081EAC82E82E0D82EF090A302F50138
:10407000E21BF30BFF2009F4DFC08091A602E83CAD
:10408000F10508F09BC0282F207F09F052C056137D
:1040900013C0491311C0FE2CE1100EC08F70806157
:1040A0008093A6020E947B1FC6010E94C41E8091BD
:1040B000A602F801858358C1AB2831F05F3F31F487
:1040C00081E04F3F19F403C081E001C080E080FD32
:1040D00003C081E08E2502C080E090E0F82FF170EF
:1040E000FF2E80FF1CC080916F022091700236E08D
:1040F000821709F417C190E0389FF001399FF00D45
:104100001124EF58FD4F6181561306C0608146139C
:1041100003C06281E61203C001968770E9CFFE2CCE
:10412000EE2009F421C18091A60281608093A6024D
:104130005AC0561306C0491304C0E11002C0F8016A
:104140009FC04D875E878D859E850E94361F882380
:1041500079F1EE2069F12091A602822F82958F706D
:1041600090E0029774F08091A1029091A20298874A
:104170008F831986BB86AA862C87CE0107960E945C
:10418000C41E86E0F801A1EAB2E001900D928A9582
:10419000E1F70E94891F0E947B1F0DC0561729F16D
:1041A0004D875E878D859E850E94361F81112CC0AC
:1041B000C8010E94C41EFF24F394D6C0282F207F7C
:1041C00069F77A2DB98AA88A6E2D89890E943B1FCA
:1041D00081EA92E00E94C41E86E0F60111928A955F
:1041E000E9F70E947B1FF12CBFC04913D9CFE11022
:1041F000D7CFF8018583C8010E94C41E86E0F6016E
:1042000011928A95E9F7B0C0EE2091F22091A602B2
:10421000822F82958F7090E002970CF4B2CF80913C
:10422000A1029091A2029A8389831B82BD82AC82F3
:104230002E83CE010196A3CFE83CF10508F047C0DC
:10424000FE2CEE2009F4B4CF561330C049132EC013
:104250002091A60220FD21C0822F82958F70482FC9
:1042600050E041155105C9F0F80125834F30510543
:1042700041F08F5F982F9295907F822F8F70892BBE
:104280008583C8010E94C41E86E0F801A1EAB2E05D
:1042900001900D928A95E1F742C086E0F801A1EA0B
:1042A000B2E001900D928A95E1F75EC04D875E877E
:1042B0008D859E850E94361F811163CF8091A60255
:1042C00081608093A602C8010E94C41E4DC07A2D51
:1042D000B98AA88A6E2D89890E943B1F86E0F60163
:1042E00011928A95E9F71BC0EE2009F461CF4D8742
:1042F0005E878D859E850E94361FF82E882309F4DF
:1043000057CF86E0F801A1EAB2E001900D928A95BC
:10431000E1F781EA92E00E94491B0E94891F0E94F6
:104320007B1F22C04D875E878D859E850E949D24C0
:10433000292F22952F70223028F49F7039F0811197
:1043400005C00BC0243028F49F7049F4805E88308B
:1043500020F0C8010E94C41E9F2CF92C05C0F80152
:104360009581907F99F7F9CF8F2D61960FB6F894CC
:10437000DEBF0FBECDBFDF91CF911F910F91FF9098
:10438000EF90DF90CF90BF90AF909F9008951F93D4
:10439000CF93DF93CDB7DEB72C970FB6F894DEBF7F
:1043A0000FBECDBF4F83588769877A878B879C87DD
:1043B000CE0107960E94F51F8823D1F09F81888542
:1043C0002A853B85232B31F08F3F31F481E09F3FDD
:1043D00019F403C081E001C080E080FD47C04F8137
:1043E000588569857A858B859C850E944A1F3EC0C9
:1043F00086E0FE013796DE01119601900D928A95B6
:10440000E1F7FF81E8856A857B856115710531F0EB
:10441000EF3F31F481E0FF3F19F403C081E001C0B8
:1044200080E080FD23C02091700230E0C901019638
:104430008770992740916F0250E084179507F1F13A
:10444000F983EA837D836C8396E0929FD001939FEA
:10445000B00D1124AF58BD4FFE01319601900D9261
:104460009A95E1F7809370020E945A1F16E080919E
:104470006F0290917002891771F1189FC001112489
:104480008F589D4F0E94F51F882329F1E0916F02FC
:104490001E9FF0011124EF58FD4F40815181628130
:1044A0007381848195810E944A1F80916F0290E000
:1044B00001968770992780936F02D9CF0E940E1FB3
:1044C0001092700210926F02E1EAF2E086E0DF01E2
:1044D0001D928A95E9F72C960FB6F894DEBF0FBEB1
:1044E000CDBFDF91CF911F910895EF92FF920F936F
:1044F0001F93CF93DF938C01892B09F46CC0F12CAF
:10450000EE24E394E8012196F8018491843740F485
:10451000843008F051C0813081F0823019F15BC0E5
:10452000853709F444C0A8F19CE7980F903708F04C
:1045300052C08F770E94F91B41C00E5F1F4FFE01D2
:10454000849190E2980F983050F48770FE2D01C04E
:10455000FF0F8A95EAF78F2F0E94202514C00E9432
:104560004F1B2DC00E5F1F4FFE01849190E2980FEC
:10457000983060F48770FE2D01C0FF0F8A95EAF72E
:104580008F2F0E9426250E944F2519C00E94F91BDB
:1045900016C00E5F1F4FFE01C491CC2381F08FE93E
:1045A0009FE00197F1F700C00000C150F6CF0E5F09
:1045B0001F4FFE01F49003C00E944F1B8E018F2DF0
:1045C000882309F49FCFEFE9FFE03197F1F700C0AE
:1045D00000008150F5CFDF91CF911F910F91FF9097
:1045E000EF900895089508950C94F3220C94F4220A
:1045F0000E94F6226093D3027093D4028093D50276
:104600009093D6020C94F41E0C94F8220F931F93EF
:104610000091D3021091D4022091D5023091D6029C
:10462000602B712B822B932B1F910F910C94F822EE
:104630000F931F930091D3021091D4022091D502C1
:104640003091D60260237123822393231F910F910F
:104650000C94F8220F931F930091D3021091D4026F
:104660002091D5023091D6026027712782279327A7
:104670001F910F910C94F8220C94F3220E943C237A
:104680006093CF027093D0028093D1029093D202B4
:104690000C94F41E60E070E0CB010C943E230F9369
:1046A0001F9341E050E060E070E08A019B0104C08C
:1046B000000F111F221F331F8A95D2F7C901B801BD
:1046C0001F910F910C943E230F931F9341E050E0F4
:1046D00060E070E004C0440F551F661F771F8A9585
:1046E000D2F78091CF029091D002A091D102B091E7
:1046F000D2028A019B01082B192B2A2B3B2BC901C3
:10470000B8011F910F910C943E230F931F9341E02A
:1047100050E060E070E004C0440F551F661F771F33
:104720008A95D2F740955095609570958091CF020B
:104730009091D002A091D102B091D2028A019B0146
:10474000082319232A233B23C901B8011F910F9184
:104750000C943E230F931F9341E050E060E070E023
:1047600004C0440F551F661F771F8A95D2F78091AA
:10477000CF029091D002A091D102B091D2028A01D1
:104780009B01082719272A273B27C901B8011F9138
:104790000F910C943E230F931F930091CF02109121
:1047A000D0022091D1023091D202602B712B822B4A
:1047B000932B1F910F910C943E230F931F93009105
:1047C000CF021091D0022091D1023091D202602309
:1047D0007123822393231F910F910C943E230F93F7
:1047E0001F930091CF021091D0022091D1023091FD
:1047F000D20260277127822793271F910F910C9473
:104800003E230895292F220F920F990F890FE82F29
:10481000E695E695E695877051E001C0550F8A95BB
:10482000EAF785E0E89FF0011124E955FD4F20E00B
:1048300030E070E04081CB01022E02C09695879552
:104840000A94E2F7817081958427852384278193D8
:104850002F5F3F4F2530310569F70895292F220F2B
:10486000920F990F890F682F669566956695982F18
:10487000977085E0689FB001112440E050E080E02F
:10488000FB01E40FF51FE955FD4F208130E0092EB3
:1048900002C0369527950A94E2F721703327042E3B
:1048A00001C0220F0A94EAF7822B4F5F5F4F453019
:1048B000510531F70895BF92CF92DF92EF92FF92A8
:1048C0000F931F93CF93DF938C01C090CF02D090B2
:1048D000D002E090D102F090D2028091D302909168
:1048E000D402A091D502B091D602C82AD92AEA2AC8
:1048F000FB2ACFE1D0E0D701C6010C2E04C0B6954B
:10490000A795979587950A94D2F780FD04C02197C3
:1049100090F7B12C07C0BC2EB8018C2F0E9439042F
:104920000197A9F38B2DDF91CF911F910F91FF90EC
:10493000EF90DF90CF90BF900895CF93DF93EC017D
:104940000E945B24BE010E943904DF91CF9108953B
:104950001F93CF93DF93EB0190916E02992321F087
:10496000CB010E949D2413C0882349F0CB010E94F3
:104970005B24182F682FCE010E94022404C0CB01B3
:104980000E942E24182FBE01812F0E943904DF912E
:10499000CF911F9108958091D70285958595859532
:1049A00008958091D702877008959091D7029770EB
:1049B00081E009F480E008959091F10292FB2227B2
:1049C00020F9281751F080FB92F99093F102809121
:1049D000F0029091F1020C94E22508958091F10289
:1049E00082FB882780F991E089270C94DC2481E000
:1049F0000C94DC2480E00C94DC248091E302089584
:104A00009091E302892B8093E30208958095909121
:104A1000E30289238093E30208951092E30208954C
:104A20009091E202892B8093E20208958095909103
:104A3000E20289238093E20208951092E20208952F
:104A40009091E102892B8093E102089580959091E5
:104A5000E10289238093E10208951092E102089512
:104A60008091D802089508950C9433250C94342530
:104A70009091F10292FD08C09091D802981721F010
:104A80008093D8020C94362508958091D80288230B
:104A900029F01092D80280E00C9436250895E09118
:104AA0003001F09131018091E3028083E091300187
:104AB000F091310190818091E202892B8083E09115
:104AC0003001F091310190818091E102892B808346
:104AD0008091D802882381F0E0913001F09131017A
:104AE0009081892B808380913001909131010E94C7
:104AF000662681110E9445258091300190913101F7
:104B00000C94EB190C9433259091F10292FD10C096
:104B100098E0899F90011124262B2093D7020E94B0
:104B200064238091D7028595859585950C9482257F
:104B30000C9464231092D70280E00C94822520917B
:104B4000D702809582238093D702982F977041F4E3
:104B500030E0482F082E000C550B2417350721F4A0
:104B60009091F10292FF07C08595859585950E94E9
:104B700085230C949A25089580E0089580E090E0C4
:104B80000E94EF2F21E08A3E9E4F09F020E0822F05
:104B9000089582E090E00C94E12F83E090E00C9483
:104BA000E12FCF9384E090E00E94E12FC82F82E2B2
:104BB00090E00E94E12F2C2F30E0A901582BCA0170
:104BC000CF910895CF93C92F682F84E090E00E9481
:104BD000F52F6C2F82E290E0CF910C94F52FAB0172
:104BE000BC018FE090E00C940730AB01BC0183E185
:104BF00090E00C94073060E070E0CB010C94F52558
:104C00006AEE7EEF80E090E00E94133060E082E088
:104C100090E00E94F52F60E083E090E00E94F52F85
:104C20001092D3021092D4021092D5021092D602A2
:104C300060E084E090E00E94F52F60E082E290E086
:104C40000E94F52F60E085E090E00E94F52F60E083
:104C500086E090E00E94F52F6FEF87E090E00E94E1
:104C6000F52F40E050E0BA0188E090E00E94073064
:104C700060E08DE090E00E94F52F40E050E0BA0146
:104C800088E190E00E94073060E087E190E00E94B8
:104C9000F52F40E050E0BA018CE190E00E9407302F
:104CA00060E070E080E290E00E94133040E050E06D
:104CB000BA0188E190E00E9407300C942C030C9418
:104CC0000026682F8EE090E00C94F52FFC013296C0
:104CD00097E080E0915029F021912223D9F38F5F52
:104CE000F9CF0895662349F0FC0132960896219188
:104CF000621729F0E817F907D1F780E0089581E0FD
:104D000008959C01FC0132969FEF80E04191461787
:104D100089F09F3F19F4411101C0982F8F5F8630B1
:104D2000A9F79F3F39F0F901E90FF11D97FDFA95B9
:104D30006283089508959C012A5F3F4FFC014281E0
:104D4000461301C01282019682179307B9F708959E
:104D50000C9481260C949B26029626E0FC0111926D
:104D60002A95E9F7089508950C94B3260C94B32678
:104D7000CF930E94B6260E942C070E94B426C0E062
:104D80008C2F0E944D06811104C0CF5FCA30C1F73D
:104D900001C081E0CF9108950C94B3260C94CC26E9
:104DA00080913E03843061F10E94CE2680E00E9413
:104DB000CD1480E00E9411041092E50220E488E105
:104DC00090E00FB6F894A895809360000FBE2093F2
:104DD000600083B7817F846083BF83B7816083BFB6
:104DE0007894889583B78E7F83BF0FB6F894A89583
:104DF00080916000886180936000109260000FBE17
:104E000008950C94B3260E940E1F0E94BC130E94AA
:104E1000DF190E9411040C9401271F920F920FB604
:104E20000F9211248F939F93AF93BF938091E502CC
:104E3000811113C08091320390913303A091340308
:104E4000B09135034196A11DB11D8093320390931B
:104E50003303A0933403B0933503BF91AF919F9177
:104E60008F910F900FBE0F901F90189582E084BD18
:104E700093E095BD9AEF97BD80936E0008952FB78C
:104E8000F8948091320390913303A0913403B09150
:104E900035032FBF08952FB7F894609132037091B6
:104EA000330380913403909135032FBF08959C0103
:104EB0004FB7F8948091320390913303A09134035B
:104EC000B09135034FBF821B930B089578941F92C6
:104ED0000F920FB60F9211248F939F93AF93BF93AE
:104EE0008091320390913303A0913403B091350344
:104EF0000196A11DB11D8093320390933303A093BB
:104F00003403B0933503BF91AF919F918F910F9070
:104F10000FBE0F901F901895109236031092370312
:104F200010923803109239030895CF92DF92EF92D6
:104F3000FF926B017C010E94F50781110EC00E9457
:104F40004B27C61AD70AE80AF90AC0923603D0924C
:104F50003703E0923803F0923903FF90EF90DF902F
:104F6000CF9008950F931F930E94F507882321F097
:104F70001F910F910C944B270E944B2700913603F1
:104F8000109137032091380330913903600F711F5E
:104F9000821F931F1F910F9108950E94F5078111A1
:104FA0000C943F270E94B227CB01089581E08093A3
:104FB000E00080E28093D8001092C9008FE19EE467
:104FC0000197F1F700C0000087E090EBDC018093CF
:104FD000470390934803A0934903B0934A039CE08E
:104FE00088E10FB6F894A895809360000FBE909367
:104FF0006000FFCF9093DB018093DA0108958091E8
:10500000EE020895CF93DF9300D01F92CDB7DEB7A5
:1050100090913E03943019F589837B836A8382E003
:105020008093E9008FEF9091E800815095FD06C0D4
:1050300095ED9A95F1F700008111F5CF8091E80088
:1050400085FF0DC040E050E063E070E0CE010196C6
:105050000E941D2A8091E8008E778093E8000F90CF
:105060000F900F90DF91CF910895BC0184E00C94D4
:105070000228BC0183E00C94022822E02093E9007E
:105080002FEF3091E800215035FD06C035ED3A95FF
:10509000F1F700002111F5CF2091E80025FF0BC0AA
:1050A00040E050E066E070E00E941D2A8091E80038
:1050B0008E778093E8000895CF93DF9321E02093CB
:1050C000E9002FEF3091E800215035FD06C035EDA5
:1050D0003A95F1F700002111F5CF2091E80025FF66
:1050E00014C0EC0140E050E068E070E00E941D2A2E
:1050F0008091E8008E778093E80088E0FE01A6EEBC
:10510000B2E001900D928A95E1F7DF91CF91089579
:1051100080913D03811109C00E94AE2B0E940B2C8F
:105120008091E20084608093E200089510923D0334
:10513000089508950895089542E061EC81E00E9489
:10514000272B42E261EC82E00C94272B80914003F4
:10515000833009F460C030F4813071F0823009F49A
:1051600099C008958A3009F485C08B3009F46BC06A
:10517000893009F0A7C020C080913F03813A09F02F
:10518000A1C08091E800877F8093E800809143036D
:1051900090914403892B21F468E086EE92E003C0ED
:1051A00060E080E090E070E00E94682A8091E80072
:1051B0008B778093E800089580913F03813209F056
:1051C00081C08091430390914403029708F07AC014
:1051D0008091E800877F8093E8008091E80082FD5D
:1051E00005C080913E038111F8CF6CC02091F3007F
:1051F0008091F20090E0922B029729F48091F100C7
:105200008B7F813021F48091F1008093EE028091B8
:10521000E8008B7753C080913F03813A09F052C078
:105220008091430390914403892B09F04BC08091F6
:10523000E800877F8093E8008091E80080FFFCCF42
:1052400080913C0136C080913F038132D9F5809135
:10525000430390914403892BA9F58091E800877F4F
:105260008093E8000E945C2B8091410380933C0175
:105270000C940E1F80913F03813221F58091E8004C
:10528000877F8093E8000E945C2B8091420380938B
:10529000EF02089580913F03813AA1F48091E800E4
:1052A000877F8093E8008091E80080FFFCCF8091A9
:1052B000EF028093F1008091E8008E778093E80000
:1052C0000C945C2B089584B7877F84BF0FB6F89445
:1052D000A8958091600088618093600010926000C2
:1052E0000FBE90E080E80FB6F89480936100909331
:1052F00061000FBE0E94591A0E94AE2B0E940B2C17
:105300008091E20084608093E20078940E94A02E55
:105310000E94671A82E391E00E94DA1980913E03AD
:105320008530A9F480913E03853079F40E94D0261F
:1053300080913C038823B1F30E94B826882391F31F
:105340000E94072A0E940E1FEDCF0E9403270E9491
:10535000731A0E94631AE2CF0C94AE29292F3327C7
:1053600023303105C9F060F42130310581F022305D
:10537000310509F044C08BE390E02EEB34E043C0EC
:1053800021323105E1F02232310549F138C082E1A4
:1053900090E029EF34E037C099278130910549F03A
:1053A00028F0029761F5EEE7F4E005C0EAEBF4E0DF
:1053B00002C0EAEAF4E0849190E09F0124C0611504
:1053C000710541F061307105D1F489E090E029EE7A
:1053D00034E019C089E090E020ED34E014C061159C
:1053E000710541F06130710551F48BE790E02BE0DD
:1053F00035E009C080E490E026E835E004C080E0B4
:1054000090E020E030E0FA0131832083089580E1CC
:1054100089BD82E189BD09B400FEFDCF8091D8002D
:105420008F7D8093D8008091E00082608093E000BF
:105430008091E00081FDFCCF0895CF92DF92EF9242
:10544000FF920F931F93CF93DF93EC018B017A01AF
:105450000E947B2B811133C0E114F10439F0F70174
:1054600080819181081B190BC80FD91FC12CD12C29
:105470000115110519F18091E80085FD16C0809194
:10548000E8008E778093E800E114F10449F0F70119
:1054900080819181C80ED91ED182C08285E00FC063
:1054A0000E947B2B882321F30AC089918093F1000D
:1054B00001501109FFEFCF1ADF0ADACF80E0DF9148
:1054C000CF911F910F91FF90EF90DF90CF900895B3
:1054D00020914503309146032617370748F06115A0
:1054E000710539F42091E8002E772093E80001C07F
:1054F000B901FC0120E06115710579F180913E034D
:105500008823F1F18530F1F18091E80083FD3CC002
:105510008091E80082FD2EC08091E80080FFEBCFF3
:105520002091F3008091F20090E0922B61157105BB
:1055300051F08830910538F421912093F1006150A9
:1055400071090196F3CF21E0089709F020E08091DE
:10555000E8008E778093E800CECF2111CFCF0AC02C
:1055600080913E03882361F0853061F08091E800EE
:1055700083FD0AC08091E80082FFF2CF80E00895A9
:1055800082E0089583E0089581E008952091450325
:10559000309146032617370748F06115710539F435
:1055A0002091E8002E772093E80001C0B901FC01AA
:1055B00020E06115710591F180913E03882309F483
:1055C00040C0853009F43FC08091E80083FD3DC0B4
:1055D0008091E80082FD2FC08091E80080FFE9CF34
:1055E0002091F3008091F20090E0922B61157105FB
:1055F00059F08830910540F424912093F1003196C0
:10560000615071090196F2CF21E0089709F020E07E
:105610008091E8008E778093E800CBCF2111CCCF2A
:105620000AC080913E03882361F0853061F080914B
:10563000E80083FD0AC08091E80082FFF2CF80E09D
:10564000089582E0089583E0089581E00895982FF9
:10565000973068F59093E900981739F07091EC0055
:105660002091ED005091F00003C0242F762F50E0E0
:1056700021FD02C09F5FECCF3091EB003E7F309365
:10568000EB003091ED003D7F3093ED003091EB0069
:1056900031603093EB007093EC002093ED00509359
:1056A000F0002091EE0027FDE5CF80E008958F7097
:1056B0008093E90081E0089580913F0387FF11C046
:1056C0008091E80082FD05C080913E038111F8CFF2
:1056D00011C08091E8008B770BC080913E03882336
:1056E00049F08091E80080FFF8CF8091E8008E7744
:1056F0008093E80008952091E4003091E50095E65C
:105700004091EC00842F817040FF23C08091E8001D
:1057100080FD1DC080913E03882399F0853099F06B
:105720008091EB0085FD11C04091E4005091E500AF
:105730002417350729F3915011F09A01E1CF84E045
:10574000089582E0089583E0089581E0089580E05F
:1057500008954091E80042FFDDCF08950E941C2C7F
:105760000E94242CE0EEF0E0808181608083E8EDEF
:10577000F0E080818F77808319BCA7EDB0E08C9139
:105780008E7F8C9380818F7E808310923D0308955D
:105790000F931F93CF93DF930E941C2C0E94242C05
:1057A000C8EDD0E088818F7788838881806888837E
:1057B00088818F7D888319BC10923E0310923A0332
:1057C00010923C0310923B0300EE10E0F801808140
:1057D0008B7F808388818160888342E060E080E005
:1057E0000E94272BE1EEF0E080818E7F8083E2EE45
:1057F000F0E0808181608083808188608083F8010F
:1058000080818E7F8083888180618883DF91CF91C2
:105810001F910F910895E8EDF0E080818F7E8083E5
:10582000E7EDF0E080818160808384E082BF81E0E9
:1058300080933D030C94C82BE8EDF0E080818E7FCF
:1058400080831092E20008951092DA001092E10035
:1058500008951F920F920FB60F9211242F933F932A
:105860004F935F936F937F938F939F93AF93BF9368
:10587000EF93FF938091E10082FF0BC08091E200E3
:1058800082FF07C08091E1008B7F8093E1000E943E
:105890009F2E8091DA0080FF1FC08091D80080FF8A
:1058A0001BC08091DA008E7F8093DA008091D9004E
:1058B00080FF0DC080E189BD82E189BD09B400FE91
:1058C000FDCF81E080933E030E94882805C019BC6B
:1058D00010923E030E9496288091E10080FF19C03B
:1058E0008091E20080FF15C08091E2008E7F80935E
:1058F000E2008091E20080618093E2008091D80014
:1059000080628093D80019BC85E080933E030E949A
:105910009A288091E10084FF30C08091E20084FFEA
:105920002CC080E189BD82E189BD09B400FEFDCFB4
:105930008091D8008F7D8093D8008091E1008F7E88
:105940008093E1008091E2008F7E8093E20080915D
:10595000E20081608093E20080913A03882311F095
:1059600084E007C08091E30087FD02C081E001C0B0
:1059700083E080933E030E949B288091E10083FF97
:1059800029C08091E20083FF25C08091E100877FDC
:105990008093E10082E080933E0310923A0380916D
:1059A000E1008E7F8093E1008091E2008E7F809302
:1059B000E2008091E20080618093E20042E060E0DA
:1059C00080E00E94272B8091F00088608093F00097
:1059D0000E949928FF91EF91BF91AF919F918F9174
:1059E0007F916F915F914F913F912F910F900FBEDB
:1059F0000F901F9018951F920F920FB60F921124BF
:105A00002F933F934F935F936F937F938F939F93C6
:105A1000AF93BF93CF93DF93EF93FF93C091E900D0
:105A2000CF708091EC00D82FD17080FDD0E810921B
:105A3000E9008091F000877F8093F00078940E94C5
:105A40003F2D1092E9008091F00088608093F00073
:105A5000CD2BCF70C093E900FF91EF91DF91CF91F3
:105A6000BF91AF919F918F917F916F915F914F9176
:105A70003F912F910F900FBE0F901F9018951F937D
:105A8000CF93DF93CDB7DEB7AA970FB6F894DEBFFA
:105A90000FBECDBFEFE3F3E08091F100819323E0EF
:105AA000E734F207C9F70E94A6288091E80083FF37
:105AB0002EC180913F0390914003492F50E04A301E
:105AC000510508F024C1FA01EC58FF4F0C94412F06
:105AD000803821F0823809F01AC108C080913B0358
