:100000000C9496030C9459270C94DD030C94DD0397
:100010000C94DD030C94DD030C94DD030C94DD03E0
:100020000C94DD030C94DD030C940A2F0C94DC2F4C
:100030000C94272A0C94DD030C94DD030C94DD034F
:100040000C94DD030C94DD030C94DD030C94DD03B0
:100050000C94DD030C949C2A0C94DD030C94DD03BA
:100060000C94DD030C94DD030C94DD030C94DD0390
:100070000C94DD030C94DD030C94DD030C94DD0380
:100080000C94DD030C94DD030C94DD030C94DD0370
:100090000C94DD030C94DD030C94DD030C94DD0360
:1000A0000C94DD030C94DD030C94DD03950695069A
:1000B000C706C70614073207530853083D07D2077F
:1000C000E307E3074308530853084C08F308F30811
:1000D00005090509FC08050905090509F308F308E0
:1000E000010905090509010949307030683170308E
:1000F0006831BC30DF3068313631453100000000F6
:1001000000000000000000002B0034003600370023
:1001100013001C00296104001200080018000C00E4
:10012000E100330014000D000E001B000000000071
:100130000000E30001512C0000000000000000005E
:100140000000000009000A00060015000F002A0048
:1001500007000B001700110016002D00050010000D
:100160001A0019001D00DA5C2C000251E6000000A4
:10017000000000000000000000000000000000007F
:1001800035021E021F022002210222022961000004
:100190000000000000000000E1000000000000007E
:1001A00000000000000000000000E30001002C003F
:1001B00000000000000000000000000023022402F4
:1001C000250226022702310000002E0038022F00EF
:1001D0003000380000002E0231022F023002DA5CBB
:1001E0002C000351E40000000000000000000000AB
:1001F000000000000000000035001E001F0020006D
:100200002100220029610000000000000000000021
:10021000E1000000000000000000000000000000FD
:100220000000E20003512C0000000000000000006C
:1002300000000000230024002500260027004C00B9
:100240005000510052004F0000000000000000006C
:10025000000000000000DA5C2C000100E600000055
:10026000000000000000000000000000000000008E
:1002700000003A003B003C003D003E00C35CC45C13
:10028000CA5C0000000044003900C55CCB5CBC00C7
:10029000AE00BB00000000000000000001000000F4
:1002A0000000000000000000000000003F004000CF
:1002B0004100420043000000450000000000C65C11
:1002C000C85C0000AA00A800A900C75CC95C005C6B
:1002D000000001000000000000000452165C1E0037
:1002E0001F002000210022002B0014001A0008002B
:1002F00015001700296104001600070009000A0014
:10030000E1001D001B00060019000500E000E300ED
:100310004A00E20005512C0023002400250026009D
:1003200027002A001C0018000C00120013002F00E8
:100330000B000D000E000F00330034001100100000
:10034000360037003800DA5C2C000551E6004D001D
:10035000E400005235003A003B003C003D003E0006
:10036000000000000000000000004400C35C00002A
:100370000000000000000000390000000000AC0098
:10038000AE00AB0000000000000000000100000013
:100390003F0040004100420043004C004500000087
:1003A00000002D002E0030005000510052004F0080
:1003B00000003100AA00A800A90000000000000011
:1003C00000000100000000000000000000047F3F6A
:1003D0001F643214643214783C1E1E140A05222352
:1003E000252628292A2C2D2F3032333536383A3B12
:1003F0003D3E4042434547494A4C4E505153555764
:10040000595A5C5E6062646668696B6D6F71737582
:1004100077797B7D7F81838587898A8C8E90929482
:1004200096989A9C9E9FA1A3A5A7A8AAACAEAFB18F
:10043000B3B4B6B8B9BBBCBEBFC1C2C3C5C6C7C9D9
:10044000CACBCCCDCED0D1D2D2D3D4D5D6D7D7D893
:10045000D9D9DADADBDBDBDCDCDCDCDCDDDDDDDDE5
:10046000DCDCDCDCDCDBDBDBDADAD9D9D8D7D7D6ED
:10047000D5D4D3D2D2D1D0CECDCCCBCAC9C7C6C5A4
:10048000C3C2C1BFBEBCBBB9B8B6B4B3B1AFAEACEA
:10049000AAA8A7A5A3A19F9E9C9A98969492908E95
:1004A0008C8A89878583817F7D7B79777573716F6E
:1004B0006D6B6968666462605E5C5A59575553514A
:1004C000504E4C4A4947454342403E3D3B3A383600
:1004D000353332302F2D2C2A292826252322FFAA16
:1004E0007F554000010101010101010101020202E9
:1004F00002020202020203030303030303030404D0
:100500000404040404050505050506060606060799
:100510000707070708080808090909090A0A0A0B52
:100520000B0B0C0C0C0D0D0D0E0E0E0F0F0F1010F3
:10053000111111121213131414151516161717187A
:100540001819191A1A1B1B1C1D1D1E1E1F202021E5
:100550002222232424252626272829292A2B2C2D2C
:100560002D2E2F30313232333435363738393A3B4D
:100570003C3D3E3F404142434445464748494A4C42
:100580004D4E4F50515354555658595A5B5D5E5F0E
:10059000616264656668696B6C6D6F7072737577A4
:1005A000787A7B7D7E8082838587888A8C8E8F9106
:1005B000939596989A9C9EA0A2A3A5A7A9ABADAF30
:1005C000B1B3B5B7BABCBEC0C2C4C6C9CBCDCFD11A
:1005D000D4D6D8DBDDDFE2E4E7E9EBEEF0F3F5F8C3
:1005E000FAFDFF2A0354006800650020004E0079E0
:1005F000007100750069007300740020004B0065F5
:1006000000790062006F0061007200640000000E5B
:10061000034B0065006500620069006F0000000484
:1006200003090409023B00020100A0FA09040000CA
:100630000103010100092111010001224000070509
:10064000810308000A0904010001030000000921D8
:1006500011010001227B000705820320000A12011C
:1006600000020000000810CB563100030102000117
:1006700005010902A10185020901A100050919016D
:100680002908150025019508750181020501093029
:1006900009311581257F9502750881060938158174
:1006A000257F950175088106050C0A3802158125FC
:1006B0007F950175088106C0C005010980A10185EB
:1006C0000319012AB700150126B70095017510819D
:1006D00000C0050C0901A101850419012AA0021519
:1006E0000126A002950175108100C005010906A12F
:1006F00001050719E029E715002501950875018115
:10070000029501750881010507190029FF150026CA
:10071000FF00950675088100050819012905950552
:1007200075019102950175039101C00011241FBE4E
:10073000CFEFDAE0DEBFCDBF04B603FE27C0809165
:10074000410390914203A0914303B0914403873049
:10075000904BA740B04BD1F410924103109242034A
:10076000109243031092440314BE84B7877F84BF62
:100770000FB6F894A895809160008861809360001E
:10078000109260000FBEE0E0F8E3099511E0A0E0F0
:10079000B1E0ECE8F5E602C005900D92A43FB10788
:1007A000D9F723E0A4EFB1E001C01D92A134B20754
:1007B000E1F70E940B180C94C4320C9400000E94C4
:1007C0002A2385E00E9498230E944D204FEF6FEF6F
:1007D00080E00E94821D8BE00E944A2060E070E071
:1007E000CB010E94B70F0C94C30F81E0089581E004
:1007F00008950C94F70308950C94FB031F93CF9373
:10080000DF9300D000D01F92CDB7DEB749835A8363
:100810006B833091F60189819A81311114C066236E
:1008200059F0222349F00E94990A182F682F8981D4
:100830009A810E94400A03C00E946C0A182F6981A5
:100840007A81812F04C00E94990A69817A810F9070
:100850000F900F900F900F90DF91CF911F910C94FC
:100860001911FC01262F408151816281738184819D
:100870000C94FE0381E00895CF93DF93EC0160E0D8
:100880000E943104BE01DF91CF910C94FC030E94C1
:100890002F130E94C8040E943D240C9469130C94E9
:1008A000651308950E94E1080E9451042FEF84E32C
:1008B0009CE0215080409040E1F700C000000C9483
:1008C000C22A0F931F93CF93DF938C0161E00E94A4
:1008D0003104EC01B8010E94F903882309F44BC0EC
:1008E000B801CE010E949E23882309F444C0B801B8
:1008F000CE010E9403258823F1F1B801CE010E94A8
:1009000055258823C1F1B801CE010E94872688238E
:1009100091F1B801CE010E94D821882361F1F8013C
:100920008281882309F1CB358DE5D807C1F050F4D9
:10093000C115FCE5DF0781F0CF3DDC45A9F40E943D
:10094000271019C0CC35EDE5DE0761F0CD35DD456A
:1009500059F40E94B80E08C00E9452040CC00E94B4
:10096000C10E02C00E94C40EC801DF91CF911F9139
:100970000F910C94F50380E0DF91CF911F910F91BF
:10098000089508950C94C10481E008950C94C40462
:100990000895CF93C82F0E94C2048C2F0E94C604D2
:1009A000CF910895CF93DF93CDB7DEB72B970FB6D6
:1009B000F894DEBF0FBECDBF4F83588769877A8713
:1009C0008B8761110E94E70E9E012F5F3F4F86E0EB
:1009D000F90111928A95E9F785E0FE013796D90170
:1009E00001900D928A95E1F789819A814C815D8110
:1009F000452B31F09F3F31F491E08F3F19F403C054
:100A000091E001C090E090FF09C049815A816B815B
:100A10007C818D819E810E94E70D05C0C9010E94E5
:100A20003A048111F2CF2B960FB6F894DEBF0FBEB9
:100A3000CDBFDF91CF910895FC01808191810E940B
:100A4000DB0A0895CF93882309F4A4C0C82F823805
:100A5000C1F40E94DD2881FD9DC069E38091000101
:100A6000909101010E9477290E94190F2FEF81EECA
:100A700094E0215080409040E1F700C0000069E31D
:100A800019C0833801F50E94DD2880FD83C063E52D
:100A900080910001909101010E9477290E94190F15
:100AA0002FEF81EE94E0215080409040E1F700C0AC
:100AB000000063E580910001909101010E94792975
:100AC000CF910C94190F8438C1F40E94DD2882FD67
:100AD00061C067E480910001909101010E94772933
:100AE0000E94190F2FEF81EE94E02150804090403A
:100AF000E1F700C0000067E4DDCF8CEF8C0F813A96
:100B0000D0F46C2F80910001909101010E94412945
:100B1000882349F06C2F80910001909101010E947F
:100B200079290E94190F6C2F809100019091010189
:100B30000E947729C5CF80E28C0F883048F4C770B7
:100B400081E001C0880FCA95EAF70E94CA0EB8CFAB
:100B5000EBE5EC0FE33040F4F0E0E757FE4F808127
:100B600090E0CF910C940929E8E5EC0FE73150F4BF
:100B7000F0E0EE0FFF1FE55AFE4F80819181CF918B
:100B80000C941F29CD3E30F08C2F0E949818CF91E5
:100B90000C946A19CF910895882309F464C08238AF
:100BA00079F40E94DD2881FF5EC069E38091000135
:100BB000909101010E9477290E94190F69E310C0EA
:100BC0008338B1F40E94DD2880FF4DC063E5809139
:100BD0000001909101010E9477290E94190F63E59D
:100BE00080910001909101010E9479290C94190FC4
:100BF000843879F40E94DD2882FF35C067E4809153
:100C00000001909101010E9477290E94190F67E469
:100C1000E7CF9CEF980F913A10F4682FE1CF90E264
:100C2000980F983050F4877091E001C0990F8A9521
:100C3000EAF7892F0E94D00ED9CF9BE5980F933009
:100C400020F480E090E00C94092998E5980F973102
:100C500020F480E090E00C941F298D3E20F00E944B
:100C6000F3180C946A1908951F93CF93DF93182FEC
:100C7000EB010E942205209741F08FE99FE0019748
:100C8000F1F700C000002197F6CF812FDF91CF91BF
:100C90001F910C94CC05893319F060E070E002C01C
:100CA00060E570E00C943406882321F00E94CA0E9F
:100CB0000C94190F0895882321F00E94D00E0C94F3
:100CC000190F0895CF92DF92EF92FF920F931F9327
:100CD000CF93DF937C01062FC72FFC01D2811581B2
:100CE00012951F700E949F0E882399F0DD2389F0D2
:100CF0008C2F807F803421F080E2800F883048F094
:100D000082E00E94690F0E949F0E91E0D82ED926A2
:100D100001C0D12CCC2EC2948FE0C8228C2D90E043
:100D2000FC01EA5AFF4F0C9416328C2F807FCF7053
:100D3000882311F0C295C07FDD2399F0CC2309F4FC
:100D40008DC180E2800F883010F0011104C08C2F1B
:100D50000E94CA0E03C08C2F0E94DA0E0E94190F47
:100D60007DC1802F0E94CC05CC2309F49CC180E278
:100D7000800F883010F0011104C08C2F0E94D00E1B
:100D800003C08C2F0E94E00E0E94190F8CC18C2F83
:100D9000807FCF70803211F0C295C07F002319F0A0
:100DA0000130C9F022C0DD2371F0112341F0113070
:100DB00031F40E94FA0E8C2B0E94020F74C10E9423
:100DC000FA0E8C2B1DC0112319F0113009F46BC1E0
:100DD0000E940F0F25C0DD2321F0163008F063C1FB
:100DE0000EC0153008F05FC11BC0DD2361F0112378
:100DF00031F0F701858180FF31C18F7085838C2FA1
:100E00000E94540650C1112359F0093309F037C12B
:100E1000FFEF27EE83E0F15020408040E1F72DC145
:100E20008C2F0E945B063FC18C2F86958695837020
:100E300019F0813061F037C1DD2321F0802F9C2F24
:100E4000937002C080E090E00E94092934C1DD2344
:100E500021F0802F9C2F937002C080E090E00E94D0
:100E60001F2929C1802FDD2319F00E94981802C084
:100E70000E94F3180E946A191EC18C2F837009F01A
:100E800045C0D11114C1402F429546954770440F7B
:100E9000440F602F6F70862F90E0A0E0B0E0042E2A
:100EA00004C0880F991FAA1FBB1F0A94D2F704FF22
:100EB00010C00FE010E020E030E004C0000F111F70
:100EC000221F331F4A95D2F7009510952095309533
:100ED00003C000E010E09801C695C695C370BC0140
:100EE000CD01602B712B822B932BC23049F058F42B
:100EF000C13019F00E945609DAC00E944409D7C0D7
:100F00000E946809D4C00E944209D1C0DD2319F0B3
:100F10008C2F817001C08695882309F4C8C0402FAA
:100F2000429546954770440F440F602F6F70862F8F
:100F300090E0A0E0B0E0042E04C0880F991FAA1F23
:100F4000BB1F0A94D2F704FF10C00FE010E020E0AE
:100F500030E004C0000F111F221F331F4A95D2F743
:100F6000009510952095309503C000E010E09801A1
:100F7000C695C695C370BC01CD01602B712B822B29
:100F8000932BC23049F058F4C13019F00E941B0A6B
:100F90008EC00E94090A8BC00E942D0A88C00E9440
:100FA0007C0985C0CF70DD2339F08C2F0E94A20907
:100FB000802F0E9454067BC0802F0E945B068C2FDE
:100FC0000E94C30974C0023F01F128F4003F41F0C0
:100FD000013FA1F03FC0033FF9F0043F39F13AC0AF
:100FE000DD2341F0153008F05EC08C2F8F710E9418
:100FF000E80959C0163008F056C0F7CFDD2339F0A4
:101000008C2F8F710E94A2094EC0DD23C9F38C2F53
:101010008F710E94C30947C0DD2329F08C2F8F7187
:101020000E948D0940C00E9488093DC0DD2349F01F
:10103000CF718C2F0E94A20963E08C2F0E944E0F6B
:1010400032C081E00E94690F123068F182E00E9494
:10105000690F29C0DD2331F0112391F2802F0E9406
:10106000220521C0112399F2093349F49FEFE7EEDD
:10107000F3E09150E040F040E1F700C00000802F25
:101080000E94CC0510C04C2F4F70602FC7010E94EA
:1010900015110E94090B0FC04C2F4F70602FC70114
:1010A0000E94181108C088EF8C0D843020F40E9433
:1010B000DD280E94C904DD20C9F00E949B0E80FD3E
:1010C00015C0F70112820E94950E0E94A209C70165
:1010D0000E9497080E94950EDF91CF911F910F916A
:1010E000FF90EF90DF90CF900C94C309DF91CF91E8
:1010F0001F910F91FF90EF90DF90CF9008950F9385
:101100001F93CF93DF93EC01688179818A810E94DC
:10111000E60A8C010E943F0A0E943009B801CE0104
:101120000E946206DF91CF911F910F910895CF9396
:10113000DF93EC01988189812B813C81232B31F055
:101140008F3F31F481E09F3F19F403C081E001C07B
:1011500080E080FD19C0CE010E94610481110CC0A5
:101160000E949F0E882381F08A81882369F082E0A3
:10117000DF91CF910C94690FCE010E947F08CE01C0
:10118000DF91CF910C943C04DF91CF91089580E0E2
:1011900090E00E94092980E090E00E941F290E94AF
:1011A000E70E0E94F70E0E94190F0E949B1A0C94E2
:1011B0006A1980910001909101010E947B290C9491
:1011C000C7080E94D70E0C94D908E92FE295EF705A
:1011D0004E2F50E0FA013297EE30F105B0F4EA59A3
:1011E000FF4F0C941632803F91F018F4883E68F45B
:1011F0000EC0843F51F40BC0883E48F0813F29F473
:1012000006C093FB882780F9089580E0089581E067
:101210000895FC01808191810E94DB0A0E94E5080B
:101220000895CF93DF9300D000D01F92CDB7DEB7E3
:101230000F900F900F900F900F90DF91CF91089526
:10124000CF93DF9300D000D000D0CDB7DEB7269685
:101250000FB6F894DEBF0FBECDBFDF91CF910895DA
:10126000089508950C9431090C9432090E943409B0
:1012700060932302709324028093250290932602A8
:101280000C94C7080C9436090F931F930091230206
:10129000109124022091250230912602602B712B9F
:1012A000822B932B1F910F910C9436090F931F9350
:1012B00000912302109124022091250230912602F0
:1012C00060237123822393231F910F910C9436097D
:1012D0000F931F9300912302109124022091250265
:1012E0003091260260277127822793271F910F9143
:1012F0000C9436090C9431090E947A0960931F02FC
:101300007093200280932102909322020C94C708CC
:1013100060E070E0CB010C947C090F931F9341E0D7
:1013200050E060E070E08A019B0104C0000F111FD3
:10133000221F331F8A95D2F7C901B8011F910F915F
:101340000C947C090F931F9341E050E060E070E043
:1013500004C0440F551F661F771F8A95D2F78091EE
:101360001F0290912002A0912102B09122028A01D5
:101370009B01082B192B2A2B3B2BC901B8011F916C
:101380000F910C947C090F931F9341E050E060E0B3
:1013900070E004C0440F551F661F771F8A95D2F76F
:1013A000409550956095709580911F029091200214
:1013B000A0912102B09122028A019B0108231923E6
:1013C0002A233B23C901B8011F910F910C947C097A
:1013D0000F931F9341E050E060E070E004C0440FC1
:1013E000551F661F771F8A95D2F780911F02909133
:1013F0002002A0912102B09122028A019B010827BC
:1014000019272A273B27C901B8011F910F910C9476
:101410007C090F931F9300911F02109120022091CD
:10142000210230912202602B712B822B932B1F9172
:101430000F910C947C090F931F9300911F02109140
:101440002002209121023091220260237123822305
:1014500093231F910F910C947C090F931F9300917C
:101460001F02109120022091210230912202602758
:101470007127822793271F910F910C947C0908955F
:10148000292F220F920F990F890FE82FE695E695E5
:10149000E695877051E001C0550F8A95EAF785E01F
:1014A000E89FF0011124E950FE4F20E030E070E0A9
:1014B0004081CB01022E02C0969587950A94E2F7EF
:1014C0008170819584278523842781932F5F3F4FE7
:1014D0002530310569F70895292F220F920F990FB2
:1014E000890F682F669566956695982F977085E0A9
:1014F000689FB001112440E050E080E0FB01E40F60
:10150000F51FE950FE4F208130E0092E02C03695CC
:1015100027950A94E2F721703327042E01C0220F89
:101520000A94EAF7822B4F5F5F4F4530510531F740
:101530000895BF92CF92DF92EF92FF920F931F9385
:10154000CF93DF938C01C0901F02D0902002E090D7
:101550002102F09022028091230290912402A09116
:101560002502B0912602C82AD92AEA2AFB2ACFE10D
:10157000D0E0D701C6010C2E04C0B695A79597956B
:1015800087950A94D2F780FD04C0219790F7B12C7B
:1015900007C0BC2EB8018C2F0E9450120197A9F3EE
:1015A0008B2DDF91CF911F910F91FF90EF90DF90E6
:1015B000CF90BF900895CF93DF93EC010E94990ADA
:1015C000BE010E945012DF91CF9108951F93CF93D7
:1015D000DF93EB019091F601992321F0CB010E945A
:1015E000DB0A13C0882349F0CB010E94990A182F07
:1015F000682FCE010E94400A04C0CB010E946C0AF1
:10160000182FBE01812F0E945012DF91CF911F91A0
:101610000895EF92FF920F931F93CF93DF938C0166
:10162000892B09F46CC0F12CEE24E394E801219697
:10163000F8018491843740F4843008F051C081303F
:1016400081F0823019F15BC0853709F444C0A8F1FC
:101650009CE7980F903708F052C08F770E94CC0516
:1016600041C00E5F1F4FFE01849190E2980F9830A9
:1016700050F48770FE2D01C0FF0F8A95EAF78F2F77
:101680000E94EA0E14C00E9422052DC00E5F1F4F5B
:10169000FE01849190E2980F983060F48770FE2DDF
:1016A00001C0FF0F8A95EAF78F2F0E94F00E0E946B
:1016B000190F19C00E94CC0516C00E5F1F4FFE0106
:1016C000C491CC2381F08FE99FE00197F1F700C02E
:1016D0000000C150F6CF0E5F1F4FFE01F49003C013
:1016E0000E9422058E018F2D882309F49FCFEFE9F8
:1016F000FFE03197F1F700C000008150F5CFDF9196
:10170000CF911F910F91FF90EF9008951F93CF936A
:10171000DF93C091270216E080912802C81799F044
:10172000D0E01C9FF0011D9FF00D1124E75DFD4FDF
:101730004081518162817381848195810E94200959
:101740002196C770E9CFDF91CF911F910895409105
:10175000590250915A0260915B0270915C02809133
:101760005D0290915E020C9420090F931F93CF931A
:10177000DF9380915E0282958F7009F05DC0809149
:101780005B02882309F458C0809127021091280237
:101790006091590270915A02C0915C02D0915D0231
:1017A00091E06F3F09F090E0292F06E0811709F4DE
:1017B00043C0209721F07F3F21F030E003C031E0AB
:1017C00001C0322F90E030FD34C0089FF001099F26
:1017D000F00D1124DF01A75DBD4F11963C911197CB
:1017E000371327C03C91361324C012963C911297B0
:1017F00031111FC013964D915C9114974C1B5D0BDA
:10180000483C5105B0F480915E028F7080618093F6
:101810005E02E25DFD4F80818F708061808389E58B
:1018200092E00E949708DF91CF911F910F910C9445
:10183000860B01968770BACFDF91CF911F910F91E0
:1018400008959F92AF92BF92CF92DF92EF92FF9254
:101850000F931F93CF93DF93CDB7DEB761970FB68A
:10186000F894DEBF0FBECDBF8C0185E0F801DE012C
:101870001D9601900D928A95E1F7F801E280909112
:10188000590260915A0220915C0230915D0221154B
:10189000310531F06F3F31F481E09F3F19F403C00F
:1018A00081E001C080E0F82FF1709F2E80FD3FC1E4
:1018B000F80140815181A380B48089E5C82E82E07F
:1018C000D82EF0905B02F501E21BF30BFF2009F428
:1018D000D9C080915E02E83CF10508F095C0282F40
:1018E000207F09F052C0561313C0491311C0FE2CBB
:1018F000E1100EC08F70806180935E020E94A70B82
:10190000C6010E94970880915E02F80185834CC150
:10191000AB2831F05F3F31F481E04F3F19F403C051
:1019200081E001C080E080FD03C081E08E2502C01F
:1019300080E090E0F82FF170FF2E80FF1CC08091B6
:1019400027022091280236E0821709F40BC190E0AB
:10195000389FF001399FF00D1124E75DFD4F618143
:10196000561306C06081461303C06281E61203C0AD
:1019700001968770E9CFFE2CEE2009F415C1809105
:101980005E02816080935E0254C0561306C0491304
:1019900004C0E11002C0F80199C0C8010E94090901
:1019A000882361F1EE2051F120915E02822F829511
:1019B0008F7090E0029774F08091590290915A02D2
:1019C00098878F831986BB86AA862C87CE010796B7
:1019D0000E94970886E0F801A9E5B2E001900D9217
:1019E0008A95E1F70E94B50B0E94A70B0AC0561713
:1019F00011F1C8010E94090981112CC0C8010E947F
:101A00009708FF24F394D0C0282F207F81F77A2DE8
:101A1000B98AA88A6E2D89890E94110989E592E008
:101A20000E94970886E0F60111928A95E9F70E94D4
:101A3000A70BF12CB9C04913DCCFE110DACFF801C4
:101A40008583C8010E94970886E0F60111928A9565
:101A5000E9F7AAC0EE2091F220915E02822F8295D2
:101A60008F7090E002970CF4B5CF8091590290915D
:101A70005A029A8389831B82BD82AC822E83CE0157
:101A80000196A6CFE83CF10508F044C0FE2CEE20FC
:101A900009F4B4CF561330C049132EC020915E0212
:101AA00020FD21C0822F82958F70482F50E0411574
:101AB0005105C9F0F80125834F30510541F08F5F82
:101AC000982F9295907F822F8F70892B8583C801E4
:101AD0000E94970886E0F801A9E5B2E001900D9216
:101AE0008A95E1F73CC086E0F801A9E5B2E00190F3
:101AF0000D928A95E1F758C0C8010E940909811129
:101B000069CF80915E02816080935E02C8010E946D
:101B100097084AC07A2DB98AA88A6E2D89890E94B1
:101B2000110986E0F60111928A95E9F718C0EE20B6
:101B300009F464CFC8010E940909F82E882309F42A
:101B40005DCF86E0F801A9E5B2E001900D928A959B
:101B5000E1F789E592E00E941C050E94B50B0E9406
:101B6000A70B22C04D875E878D859E850E94DB0A6C
:101B7000292F22952F70223028F49F7039F081117F
:101B800005C00BC0243028F49F7049F4805E883073
:101B900020F0C8010E9497089F2CF92C05C0F8017D
:101BA0009581907F99F7F9CF8F2D61960FB6F894B4
:101BB000DEBF0FBECDBFDF91CF911F910F91FF9080
:101BC000EF90DF90CF90BF90AF909F9008951F93BC
:101BD000CF93DF93CDB7DEB72C970FB6F894DEBF67
:101BE0000FBECDBF4F83588769877A878B879C87C5
:101BF000CE0107960E94210C8823D1F09F81888511
:101C00002A853B85232B31F08F3F31F481E09F3FC4
:101C100019F403C081E001C080E080FD47C04F811E
:101C2000588569857A858B859C850E9420093EC0F0
:101C300086E0FE013796DE01119601900D928A959D
:101C4000E1F7FF81E8856A857B856115710531F0D3
:101C5000EF3F31F481E0FF3F19F403C081E001C0A0
:101C600080E080FD23C02091280230E0C901019668
:101C7000877099274091270250E084179507F1F16A
:101C8000F983EA837D836C8396E0929FD001939FD2
:101C9000B00D1124A75DBD4FFE01319601900D924C
:101CA0009A95E1F7809328020E94860B16E08091B6
:101CB000270290912802891771F1189FC001112401
:101CC000875D9D4F0E94210C882329F1E091270216
:101CD0001E9FF0011124E75DFD4F4081518162811B
:101CE0007381848195810E9420098091270290E070
:101CF00001968770992780932702D9CF0E94E10827
:101D00001092280210922702E9E5F2E086E0DF0156
:101D10001D928A95E9F72C960FB6F894DEBF0FBE98
:101D2000CDBFDF91CF911F91089580915F0285957E
:101D300085958595089580915F02877008959091AB
:101D40005F02977081E009F480E008959091EA02C3
:101D500092FB222720F9281751F080FB92F99093EB
:101D6000EA028091E9029091EA020C94AA0F089588
:101D70008091EA0282FB882780F991E089270C9400
:101D8000A60E81E00C94A60E80E00C94A60E809125
:101D90006B02089590916B02892B80936B020895DA
:101DA000809590916B02892380936B020895109225
:101DB0006B02089590916A02892B80936A020895BC
:101DC000809590916A02892380936A020895109207
:101DD0006A02089590916902892B8093690208959F
:101DE00080959091690289238093690208951092E9
:101DF0006902089580916002089508950C94FD0E83
:101E00000C94FE0E9091EA0292FD08C0909160023F
:101E1000981721F0809360020C94000F0895809130
:101E20006002882329F01092600280E00C94000F79
:101E30000895E0910001F091010180916B0280838F
:101E4000E0910001F0910101908180916A02892B5B
:101E50008083E0910001F0910101908180916902FD
:101E6000892B808380916002882381F0E0910001BA
:101E7000F09101019081892B8083809100019091E4
:101E800001010E94352981110E940F0F80910001EC
:101E9000909101010C94F0280C94FD0E9091EA02AF
:101EA00092FD10C098E0899F90011124262B209369
:101EB0005F020E94A20980915F02859585958595B4
:101EC0000C944C0F0C94A20910925F0280E00C94C9
:101ED0004C0F20915F028095822380935F02982FA0
:101EE000977041F430E0482F082E000C550B241752
:101EF000350721F49091EA0292FF07C085958595F8
:101F000085950E94C3090C94640F089580E090E0C9
:101F10000E948A3221E0893E9E4F09F020E0822F04
:101F2000089582E090E00C947C3283E090E00C9481
:101F30007C32CF9384E090E00E947C32C82F82E212
:101F400090E00E947C322C2F30E0A901582BCA016E
:101F5000CF910895CF93C92F682F84E090E00E941D
:101F600090326C2F82E290E0CF910C949032AB01D2
:101F7000BC018FE090E00C94A232AB01BC0183E184
:101F800090E00C94A23260E070E0CB010C94BD0FA5
:101F900069EE7EEF80E090E00E94AE3260E082E089
:101FA00090E00E94903260E083E090E00E949032E6
:101FB00010922302109224021092250210922602FF
:101FC00060E084E090E00E94903260E082E290E085
:101FD0000E94903260E085E090E00E94903260E0E4
:101FE00086E090E00E9490326FEF87E090E00E94E0
:101FF000903240E050E0BA0188E090E00E94A232C6
:1020000060E08DE090E00E94903240E050E0BA0144
:1020100088E190E00E94A23260E087E190E00E94B7
:10202000903240E050E0BA018CE190E00E94A23290
:1020300060E070E080E290E00E94AE3240E050E06C
:10204000BA0188E190E00E94A2320C94DF030C9464
:10205000C80F682F8EE090E00C9490320E94652AA1
:1020600060937B0270937C0280937D0290937E024A
:1020700060937702709378028093790290937A024A
:10208000089585B7806885BF85B7806885BF089546
:102090000C941B1508950C944A100C944A100C943F
:1020A0004D100C944A100C9451100C944A100E943C
:1020B00041108CE293E10E94E62A0E9455100C9494
:1020C00053100E944B100C944A100E94502A0E94F8
:1020D00082290E940F140E9478240E94C2220E942A
:1020E000C8200C944F109F92AF92BF92CF92DF9274
:1020F000EF92FF920F931F93CF93DF93CDB7DEB78D
:102100002A970FB6F894DEBF0FBECDBF0E94891488
:1021100081110E942E108DE6A82E82E0B82E00E0DC
:1021200010E0902E802F0E945313D82EF501C190FD
:102130005F01C826B1F40F5F1F4F0A30110589F700
:102140008FEF89838A831B820E94592A8160782FAE
:102150009D838C8349815A816B818D810E94D20439
:102160002FC080917F0281FD0E945913E12CFF2432
:10217000F3948C2D8F21F1F00E944810882399F060
:10218000EE829F82DF2081E009F480E088870E9450
:10219000592A8160782F9A8789874E815F81688567
:1021A0008A850E94D204F801E359FD4F8081F82608
:1021B000F08206C0E394FF0CF6E0EF12DACFBBCF5B
:1021C0000E9400210E943C240E9488190E94DD2860
:1021D00090916C028917B9F00E94DD2880936C02FF
:1021E0002A960FB6F894DEBF0FBECDBFDF91CF9118
:1021F0001F910F91FF90EF90DF90CF90BF90AF9025
:102200009F900C94C9042A960FB6F894DEBF0FBEB7
:10221000CDBFDF91CF911F910F91FF90EF90DF9095
:10222000CF90BF90AF909F90089580E090E0089588
:1022300008952CE3829FC0011124FC0126E0729FC7
:10224000E00DF11D1124E60FF11DEE0FFF1FE4500C
:10225000FF4F859194910895880F991FFC01E453D5
:10226000FC4F859194910895CF93DF930E9455126E
:10227000EC01811520E5920708F03FC0811540E48C
:10228000940708F0D2C0883E910500F5803E910584
:1022900008F002C1883A910570F4853A910508F07A
:1022A000A6C08130910509F49FC008F4F2C00497DC
:1022B00008F0F2C0EEC08F3B910508F4A1C0803C4D
:1022C000910508F4E6C0805C9109A5C0811550E233
:1022D000950760F4C11581E0D80708F0DDC0CD3E58
:1022E000D10508F4D6C0CE019065D7C0811520E392
:1022F000920708F093C09F708EC0811545E5940742
:1023000008F046C0811554E5950708F0A6C0C11530
:1023100082E5D80718F5C11521E5D20708F088C075
:10232000CE01F4E096958795FA95E1F7282F237072
:102330003C2F337081E090E002C0880F991F3A95DE
:10234000E2F79C68922B2C2F2F702695269540E261
:10235000249F90011124822B932B9FC09E012370F8
:1023600033279C2F96959695C115D34508F065C0E7
:1023700041E050E002C0440F551F2A95E2F780E289
:10238000989F90011124CA01822B932B9C6885C0D1
:10239000811559E5950798F4C11588E5D80708F027
:1023A00061C0C11526E5D20708F073C08C2F0E94CA
:1023B000E9128F7190E0982F882790626EC0811586
:1023C0004AE5940708F453C090568115904208F0EE
:1023D00060C08D2F8F710E94E9129E0133273062F9
:1023E0008F71A901582B53C081E090E056C0855AE7
:1023F000C82FD0E0C654DE4F888190E090644DC075
:10240000885AC82FD0E0CC0FDD1FC457DE4F88811B
:102410009981946442C00E942C113FC09927D3FF38
:1024200002C0986C3AC0906C38C09F70906A35C0FA
:102430009C2F8827816F906A30C041E050E002C035
:10244000440F551F2A95E2F780E2989F90011124CE
:10245000CA01822B932B9A6820C0982F8827846FFB
:10246000906A1BC09C2F8827806F906A16C08F705F
:102470000E94E9129E0194E0369527959A95E1F71E
:102480002F7030E0322F22273069A901482BCA0172
:1024900004C080E090E001C0CE01DF91CF910895AB
:1024A0000E9419110E94341108958238910569F132
:1024B000B0F48133910509F46DC048F48932910577
:1024C00009F463C08A32910509F469C0089585331F
:1024D000910509F455C089339105B9F00895833EFB
:1024E000910569F138F4803E9105B1F0823E910585
:1024F00009F10895863E9105A9F1873E9105B9F14C
:10250000843E910509F064C023C02091E90220FDBA
:102510004FC021FD4DC008958091E90280FD44C067
:102520008091EA0280FF44C08091E90284FD42C0AC
:1025300083EE4DC08091E90282FF38C0F5CF8091D3
:10254000E90282FD33C08091EA0280FD31C0ECCF08
:102550008091EA0281FF32C08091E90284FD2AC0A5
:1025600087EE35C08091E90283FF26C0F5CF8091C8
:10257000E90283FD21C08091EA0281FD1FC0ECCFFA
:102580008091E90285FD1CC01DC08091E90285FD96
:1025900019C016C08091E90286FD16C017C080914F
:1025A000E90286FD13C010C089E311C082EE0FC09E
:1025B00080EE0DC080E00BC086EE09C084EE07C03F
:1025C00089E205C085E303C08AE201C081E390E0AF
:1025D00008959091E90292FF0DC0282F28712830AC
:1025E00019F4877F846006C0282F2471243011F4E9
:1025F0008B7F886093FF0DC0282F2871283119F434
:10260000877E846106C0282F2471243111F48B7ECB
:1026100088612091EA0220FF0DC0382F38713830D0
:1026200019F4877F816006C0382F3171313011F481
:102630008E7F886021FF0DC0282F2871283119F462
:10264000877E816106C0282F2171213111F48E7E91
:10265000886194FD877E089580E0089508950E9422
:10266000860F811102C00E9427100E94910F809353
:102670007F020E94990F9093EA028093E9020E94E0
:102680002E130E94950F682F70E080E090E00E946A
:10269000420960911F027091200280912102909165
:1026A00022020C947A09E82FF0E0EB50FD4F808174
:1026B0000895089580EA8A95F1F7089500C0089575
:1026C0000C945A1308950C9462130C9463130C9495
:1026D00062130C946713F894E82FE295EF70F0E022
:1026E00031A1282F2F7081E090E001C0880F2A953A
:1026F000EAF7982F9095932391A392A1892B82A317
:102700007894089508950C9482130F931F93CF9398
:10271000DF93C3ECD1E089918F3F11F00E946B13DE
:1027200081E0C83CD807B9F7CDEBD1E003EC11E06C
:1027300089918F3F11F00E946B130C171D07C1F791
:10274000DF91CF911F910F910895CF92DF92EF9279
:10275000FF920F931F93CF93DF938C01C62FD0E08E
:10276000CE018D539E4F7C01FC0190819F3F09F467
:102770004DC0D62EF894E92FE295EF70F0E081A1DC
:102780009F7021E030E001C0220F9A95EAF7822B7A
:1027900081A382A12095282322A378940E945E130E
:1027A000EDEBF1E020E030E0C12C51E041914F3FF2
:1027B000B1F0A42FA295AF70B0E090968C9190E00C
:1027C0004F7002C0959587954A95E2F780FD07C046
:1027D000852F022E01C0880F0A94EAF701C080E01D
:1027E000C82A2F5F3F4F2630310501F7F70180815E
:1027F0008F3F11F00E946B1361E0C11001C060E0D7
:102800008D2D0E946013C00FD11FC882DF91CF9120
:102810001F910F91FF90EF90DF90CF9008950E944D
:1028200033158091020180910201811102C095E06F
:1028300001C090E09093000385E0891B8093FF0224
:102840000E948513EBEEF2E0A5EFB2E011921D922B
:1028500082E0E53FF807D1F785E00E94DD140E9491
:1028600047040C9447150F931F93CF93DF9300D029
:1028700000D01F92CDB7DEB70E941B1560910003F8
:10288000882379F18E010F5F1F4F85E0F8011192C7
:102890008A95E9F7862F90E0B8018B509D4F0E94F2
:1028A0005515E091FF029E012A5F3F4FF0E0EB508B
:1028B000FD4FD801882361F010E08D919081981729
:1028C00011F0808311E03196A217B307B1F706C06B
:1028D00011921D92A217B307D9F711E00E944F047D
:1028E0000DC070E06B507D4F8091FF0290E08B50E7
:1028F0009D4F0E94E5150E94831310E0812F0F90D9
:102900000F900F900F900F90DF91CF911F910F912B
:102910000895EF92FF920F931F93CF93DF93CDB75C
:10292000DEB72A970FB6F894DEBF0FBECDBF8E017B
:102930000F5F1F4F8AE0F80111928A95E9F7F12C99
:102940006F2DC8010E94A513F394F5E0FF12F8CF94
:102950004AE050E0B8018BEE92E00E9466327C01C2
:1029600021E0892B09F420E0E114F10441F08AE030
:10297000F801ABEEB2E001900D928A95E1F760911B
:10298000000370E06B507D4F45E08BEE92E00E94BB
:10299000DE14EF2819F40E94331402C081E090E0A5
:1029A0002A960FB6F894DEBF0FBECDBFDF91CF9150
:1029B0001F910F91FF90EF9008950895FF920F934C
:1029C0001F93CF93DF938C01F62ED72FC42F222392
:1029D00049F081E0809382020E94592A90938102FB
:1029E00080938002809182028823C1F080918002CE
:1029F000909181020E94712A059780F0EF2DFD2FA2
:102A0000D8014C2F50E0CD01801B910B8417950706
:102A10001CF48D918193F7CF10928202DF91CF91B8
:102A20001F910F91FF90089555985D9889B185FB8E
:102A3000882780F908958091850281110DC00E9438
:102A4000A131811102C082E001C081E08093850242
:102A5000823011F40E949C3181E090918502913086
:102A600009F080E008950E9414158093020180917E
:102A7000020166E0882311F080E001C086E00E9438
:102A80003E1B0E941B1581110C948D1508950E9408
:102A90001B15811102C00C948F15089581E090914F
:102AA00086029A3008F080E008950F931F93CF9329
:102AB000DF93EC018B01809186028A3038F4B801F3
:102AC000CE010E94E31581111DC00AC080918302CE
:102AD000909184020E94712A843F914080F715C032
:102AE000809186028F3F19F08F5F809386028091DC
:102AF00086028A3060F00E94592A90938402809363
:102B0000830203C01092860202C080E001C081E00F
:102B1000DF91CF911F910F9108950C9413270C947E
:102B20001627EF92FF920F931F93CF93DF937901B4
:102B3000C82F880FDD0B41155105A9F08AE08C9F45
:102B4000F0018D9FF00D1124ED5FFE4F8381948184
:102B500089579D4F228130E04217530708F49A01AC
:102B6000A9010E947332CE010E942028892B09F509
:102B70000115110501F18AE08C9FF0018D9FF00D88
:102B80001124ED5FFE4F458150E00417150708F44E
:102B9000A8018AE08C9FF0018D9FF00D1124ED5F5C
:102BA000FE4F6681778169577D4FC7010E9473325E
:102BB00002C080E001C081E0DF91CF911F910F91B1
:102BC000FF90EF9008950C9495170C94C117AF9255
:102BD000BF92CF92DF92EF92FF920F931F93CF930A
:102BE000DF93C82F7B01D42F69015801FB0160815D
:102BF0007181828193810E94802A643671058105EA
:102C0000910510F4DD23A1F000E010E020E030E0B9
:102C1000A501B6018C2F0E949115C82F882349F079
:102C20000E94652AF701608371838283938301C0C8
:102C3000C1E08C2FDF91CF911F910F91FF90EF900A
:102C4000DF90CF90BF90AF9008950F931F93CF93D5
:102C5000DF93CDB7DEB728970FB6F894DEBF0FBE6F
:102C6000CDBFCE0101960E94BB1F41E08885811136
:102C700001C040E008E010E09E012F5F3F4F6FEA87
:102C800072E084E00E94E715182F81110E94B81F9E
:102C9000812F28960FB6F894DEBF0FBECDBFDF910F
:102CA000CF911F910F9108950F931F93CF93DF93AF
:102CB0001F92CDB7DEB70E94A722882319F00E9489
:102CC000BC2201C080E08983E091CD01F091CE016A
:102CD00041E09285981301C040E001E010E09E01C0
:102CE0002F5F3F4F6BEA72E083E00E94E7150F9081
:102CF000DF91CF911F910F9108950F931F93CF9361
:102D0000DF9300D000D0CDB7DEB76091A7027091FD
:102D1000A8028091A9029091AA020E94802A64369A
:102D200071058105910528F10E94A829DC01CB01DC
:102D30000296A11DB11D89839A83AB83BC8300E0F9
:102D400010E020E030E044E050E0BE016F5F7F4FD4
:102D500082E00E949115182F882361F00E94652A55
:102D60006093A7027093A8028093A9029093AA028D
:102D700001C011E0812F0F900F900F900F90DF9105
:102D8000CF911F910F910895AF92BF92CF92DF9292
:102D9000EF92FF920F931F93CF93DF937C015B0120
:102DA0006A010E944E15811103C001E010E002C0CB
:102DB0000AE010E0C1E0D0E0F894B501C701F601E7
:102DC00009957894811115C021960C171D0794F070
:102DD000CC9F9001CD9F300D300D112480E090E00C
:102DE00045E34A95F1F70000019682179307C1F772
:102DF000E3CF81E0DF91CF911F910F91FF90EF9092
:102E0000DF90CF90BF90AF900895AF92BF92CF92D6
:102E1000DF92EF92FF920F931F93CF93DF9300D037
:102E200000D000D0CDB7DEB77B01C090CD01D090EF
:102E3000CE0101E010E09E012A5F3F4F40E050E0EC
:102E400060E070E080E00E949115182F882309F45B
:102E50003EC056018FEFA81AB80A6091A302709184
:102E6000A4028091A5029091A6020E94802A643655
:102E700071058105910518F105E010E09E012F5FB5
:102E80003F4F40E050E060E070E081E00E9491152B
:102E9000182F65E070E0C5010E94792491E02E8131
:102EA000281390E0192339F10E94652A6093A30248
:102EB0007093A4028093A5029093A60211C065E0CE
:102EC00070E0C5010E9479249E818913D5CF85E0E9
:102ED000F6013196DE01119601900D928A95E1F787
:102EE000112349F085E0FE013196AEE9B2E0019090
:102EF0000D928A95E1F785E0EEE9F2E0D7010190C5
:102F00000D928A95E1F7812F26960FB6F894DEBFD1
:102F10000FBECDBFDF91CF911F910F91FF90EF902A
:102F2000DF90CF90BF90AF9008950F931F93CF93F2
:102F3000DF93EC018B0145E057E10E94C416882322
:102F4000D1F04DE756E1B801CE010E94C4168823A6
:102F500091F044E556E1B801CE010E94C4168823E1
:102F600051F045E256E1B801CE01DF91CF911F91BA
:102F70000F910C94C41680E0DF91CF911F910F91B7
:102F800008950F931F93CF93DF93F894C091CD01D1
:102F9000D091CE01CE01019625E0FB01DC0101902C
:102FA0000D922A95E1F765E070E00E94792488830C
:102FB0007894F8946E817F818885998500919A0232
:102FC00010919B0220919C0230919D026017710725
:102FD0008207930751F060939A0270939B0280934B
:102FE0009C0290939D020E948B297894F8948A8584
:102FF0000E94D3237894F8948A89882331F060E082
:10300000CE010B960E9493201A8A7894DF91CF917B
:103010001F910F9108950E94CC290E94472C0E9475
:10302000602C0E94722C0E946110FBCF8091B9022B
:1030300080FF0BC060913A0185E0689FB0011124C8
:1030400075956795759567952BC081FF09C060914F
:103050003A0185E0689FB00111247595679520C0FD
:1030600082FF07C060913A0185E0689FB00111249A
:1030700017C09091B8029923D1F060913901961749
:1030800088F720913A0185E0289F90011124929FB2
:10309000A001939F500D112470E0CA010E94E031FD
:1030A0006038710540F46115710519F406C065E0DA
:1030B00070E0862F08958FE7089581E0089580914C
:1030C000B90280FF08C06091360170E07595679580
:1030D0007595679521C081FF06C06091360170E04B
:1030E0007595679519C082FF04C06091360170E044
:1030F00010C09091B702992399F06091350196170D
:10310000A0F780913601899FC001112470E00E94D0
:10311000E0316038710540F46115710519F406C09D
:1031200061E070E0862F08958FE7089581E00895AB
:103130008D3E21F40E941618819504C08E3E29F41C
:103140000E9416188093BD0208958F3E21F40E94BC
:103150001618819504C0803F29F40E9416188093A8
:10316000BC020895893F19F40E945F1805C08A3F88
:1031700031F40E945F1881958093BE0208958B3FC1
:1031800021F40E945F18819504C08C3F29F40E94AD
:103190005F188093BF0208959FE0980F983078F4ED
:1031A00021E030E0A90102C0440F551F9A95E2F7D3
:1031B000CA019091BB02892B8093BB0208958D3F79
:1031C00021F48091B90281600BC08E3F21F480917F
:1031D000B902826005C08F3F29F48091B9028460F2
:1031E0008093B90208958D3E39F49091BD0297FF06
:1031F00035C01092BD0259C08E3E29F49091BD0297
:103200001916BCF32BC09091BC028F3E29F497FF96
:1032100025C01092BC0249C0803F19F41916CCF3A6
:103220001DC09091BE02893F29F41916BCF410927A
:10323000BE023BC08A3F19F497FF10C0F8CF8B3F06
:1032400039F49091BF0297FF09C01092BF022DC0C0
:103250008C3F21F49091BF021916BCF39FE0980FA8
:10326000983080F421E030E0A90102C0440F551FDE
:103270009A95E2F7CA0180959091BB0289238093C9
:10328000BB0213C08D3F21F48091B9028E7F0BC029
:103290008E3F21F48091B9028D7F05C08F3F29F4C4
:1032A0008091B9028B7F8093B9028091BC02811119
:1032B00006C08091BD02811102C01092B8028091B7
:1032C000BE02811106C08091BF02811102C010921E
:1032D000B70208950E94592A2091BC02211104C00E
:1032E0002091BD02222321F09093B6028093B50273
:1032F0002091BE02211104C02091BF02222321F09F
:103300009093B4028093B3028AEB92E00C94FB2872
:10331000EF92FF920F931F93CF93DF9300D000D0D3
:1033200000D0CDB7DEB786E0EAEBF2E0DE01119621
:1033300001900D928A95E1F7E090BC02F090BD02F9
:103340000091BE021091BF021092BC021092BD0209
:103350001092BE021092BF02E11003C0FF2009F4D8
:103360005DC08091B5029091B6020E94712AAC01B5
:103370009091B802992339F020913B0130E0241755
:10338000350758F04BC020913C018AE0289F9001FE
:1033900011242417350718F041C09F3F19F09F5F93
:1033A0009093B802EE2061F00E9416181E1414F0DB
:1033B0009FEF01C091E0989F902D11249093BC0243
:1033C000FF2061F00E9416181F1414F09FEF01C037
:1033D00091E0989F902D11249093BD023091BC02F2
:1033E0003323E1F02091BD022223C1F045EB3403E9
:1033F000C0011124992319F09093BC0203C081E00D
:103400008093BC0235EB2303C0011124992319F0EA
:103410009093BD0203C081E08093BD02011103C0FF
:10342000112309F45DC08091B3029091B4020E940F
:10343000712AAC019091B702992339F0209137019C
:1034400030E02417350758F04BC0209138018AE04E
:10345000289F900111242417350718F041C09F3F81
:1034600019F09F5F9093B702002361F00E945F18EC
:10347000101614F09FEF01C091E0989F902D112439
:103480009093BE02112361F00E945F18111614F090
:103490009FEF01C091E0989F902D11249093BF025F
:1034A0003091BE023323E1F02091BF022223C1F00C
:1034B00045EB3403C0011124992319F09093BE0207
:1034C00003C081E08093BE0235EB2303C0011124C9
:1034D000992319F09093BF0203C081E08093BF024B
:1034E0008091BC0281110BC08091BD02811107C087
:1034F0008091BE02811103C08091BF0281110E94A0
:103500006A19EB82FC820D831E8386E0FE013196F0
:10351000AAEBB2E001900D928A95E1F726960FB6DC
:10352000F894DEBF0FBECDBFDF91CF911F910F91F9
:10353000FF90EF900895EAEBF2E086E0DF011D9244
:103540008A95E9F71092B8021092B7021092B90268
:103550000895EF92FF920F931F93CF93DF938B0108
:10356000682F11110AC0442329F0E82FF0E0ED5133
:10357000FB4F6491762F862F75C0212F30E0E82F06
:10358000F0E0442321F0ED51FB4FE491F0E046E000
:10359000049FC0011124CFEFD0E0BE010E94CC31C6
:1035A0004BEA4603C001479F900D1124800F911DE7
:1035B000800F911D982F990F890FAE01421B530B5D
:1035C0004E9FD0014F9FB00D5E9FB00D11249B2FD9
:1035D000189FA0011124452F55278E01041B150BA0
:1035E0000E9FA0010F9F500D1E9F500D11247E01B4
:1035F000E81AF108E29E8001E39E100DF29E100D84
:103600001124212F3327C21BD30BCE9F9001CF9FB4
:10361000300DDE9F300D112462307105A9F048F4A1
:103620006115710569F061307105C9F48B2F752F33
:103630000DC06430710581F058F06630710579F481
:103640007E2F8B2F932F0DC0832F7B2F9E2F09C092
:103650008E2F7B2F952F05C08E2F732F02C07E2FAC
:10366000852F692FDF91CF911F910F91FF90EF90E0
:10367000089541E00E94A91A08950895E0E4F1E058
:103680008083618308950E94391B0895CF93DF934F
:10369000762FE901682F842F0E94431B798368836A
:1036A0008A83DF91CF91089580910203282F269578
:1036B00030E02115310519F48170826005C0253292
:1036C000310524F08170886480930203089588E0B6
:1036D00090E00C948432CF92DF92EF92FF926B01D4
:1036E0007C010E94541BB701A60188E090E0FF9086
:1036F000EF90DF90CF900C94A232E2E0F3E083E011
:10370000808311828FEF828383831482ADECB2E0D9
:1037100012968C911297836012968C9360817181BE
:10372000828193810C946B1B8091020380FF02C005
:103730008695089580E0089590910603933018F4DB
:103740009F5F90930603882351F06091020370916C
:10375000030380910403909105030C946B1B08955F
:1037600081E00C949C1B90910603992319F09150D1
:1037700090930603882351F0609102037091030334
:1037800080910403909105030C946B1B089581E0D4
:103790000C94B31B70E00C944D2460914101809116
:1037A000020380FF0AC08091400123E0829FC00194
:1037B0001124895F9C4F0C94CA1B80914201909107
:1037C0004301891780F7E82FF0E09F01220F331F94
:1037D000E20FF31FE95FFC4F1182108212828F5FAC
:1037E000F0CF9091020390FF16C09091420120917A
:1037F0004301921770F4E92FF0E0DF01AA0FBB1F1D
:10380000EA0FFB1FE95FFC4F8183608342839F5F68
:10381000F0CF0C94CD1B0895CF93DF9300D01F926F
:10382000CDB7DEB79091020390FF0AC09E012F5FD3
:103830003F4F0E94461B4B8169818A810E94F11B88
:103840000F900F900F90DF91CF910895CF93DF935A
:10385000EC01EC81F0E0E252FC4F4491E2E0F3E055
:10386000628181810E940C1C8C818F5F8C83DF912F
:10387000CF910895CF93DF93EC01E2E0F3E0438131
:1038800062818C810E940C1C8C818F5F8C83DF9104
:10389000CF9108950F931F93CF93DF9300D01F9282
:1038A000CDB7DEB78C018091C00281110AC09E01A4
:1038B0002F5F3F4F4FEF6FEF0E94461B8A8180932F
:1038C000C002F8018481813051F028F0823061F427
:1038D0004091C0020AC08091C00240E007C06091E0
:1038E000C00240E080E003C040E080E060E00E9471
:1038F000F11BF801848190E0019663E070E00E9482
:10390000E03184830F900F900F90DF91CF911F9142
:103910000F910895AF92BF92CF92DF92EF92FF92F4
:103920000F931F93CF93DF9300D01F92CDB7DEB7D5
:10393000182FF62E042FE22E9091020390FF7EC0E6
:10394000E92FE695AE2FB0E0A153BE4F8C91809346
:10395000CD029E7F923061F49E012F5F3F4F812FF9
:103960000E94461B4B8169818A810E94F11B43C0E2
:10397000823019F4009105033EC0863019F410918D
:10398000030339C08930D9F38931A9F5E9518E2F64
:103990008170D82EE695F0E0E252FB4FA590B490EE
:1039A000C12CBB2460914401C61618F52C2D30E0C3
:1039B000A29EC001A39E900DB29E900D112470E0B6
:1039C0000E94CC31812FD11002C0860F01C0861B0E
:1039D00090914201290F311DA901440F551F240F59
:1039E000351F295F3C4F402F6F2D0E94461BC3940B
:1039F000D9CF0E94CD1B80910303181308C080917A
:103A00000403F81204C080910503081729F080917F
:103A1000CF0282608093CF0210930303F0920403DD
:103A200000930503EE2051F06091020370910303AF
:103A300080910403909105030E946B1B0F900F90DF
:103A40000F90DF91CF911F910F91FF90EF90DF903A
:103A5000CF90BF90AF900895E2E0F3E09181282FDE
:103A60004381628188E0890F0C948A1C81E00C9468
:103A70002C1DE2E0F3E09181282F4381628188EFE1
:103A8000890F0C948A1C81E00C94391DE2E0F3E06C
:103A9000628121E1620F08F46FEF282F4381818159
:103AA0000C948A1C81E00C94461DE2E0F3E06281F4
:103AB00021E1621B08F460E0282F438181810C948E
:103AC0008A1C81E00C94551DE2E0F3E0438121E182
:103AD000420F08F44FEF282F628181810C948A1CD9
:103AE00081E00C94641DE2E0F3E0438121E1421B9C
:103AF00008F440E0282F628181810C948A1C81E0C7
:103B00000C94731D21E00C948A1C20E00C948A1CF8
:103B1000FF920F931F93CF93DF93EC01F12C0FEFE4
:103B200010E060914401F616F0F4809142012F2DCF
:103B300030E0280F311DC901880F991F280F391F48
:103B4000295F3C4F70E0C8010E94E031962F8C81C4
:103B50004091050360910403F99E800D11240E9499
:103B6000461BF394DECF0E94CD1B9A818C8190FF7F
:103B700002C08F5F01C081508C83DF91CF911F9174
:103B80000F91FF9008958F929F92AF92BF92CF9224
:103B9000DF92EF92FF920F931F93CF93DF93EC018D
:103BA0008A8180FF03C0BB24BA9402C0BB24B394B3
:103BB0008C8181110DC081E0B81206C08091440152
:103BC00081508093C20202C01092C20281E08C83B5
:103BD000A12C4CE0942E80914401A81608F044C01A
:103BE00080914201CA2CD12C8601080F111DC801F9
:103BF000880F991F080F191F095F1C4FF8011182C8
:103C00001082128234E0E32EF12C812C8091C202CA
:103C1000880D8D302CF0692D0E94BE31892F05C092
:103C200087FF03C090914401890F082E000C990B67
:103C3000C816D90691F4809105038E9DA0018F9D31
:103C4000500D1124559547955595479598016091CC
:103C50000403809103030E94461B8B0CF1E0EF1AD2
:103C6000F108A1F6A394B7CF0E94CD1B8091C202A8
:103C700091E0B9120EC0811107C0809144018150BA
:103C80008093C2021C820FC081508093C202BC820A
:103C90000AC090E001966091440170E00E94E0311A
:103CA0008093C2028C83DF91CF911F910F91FF907F
:103CB000EF90DF90CF90BF90AF909F908F9008953E
:103CC0001F93CF93DF93EC018C81811109C081E0B8
:103CD0008C831092C10292E090933F0180933E0149
:103CE0008091420190914301891770F4E82FF0E030
:103CF0009F01220F331FE20FF31FE95FFC4F118278
:103D0000108212828F5FF0CF10E06091440116178D
:103D1000C0F5E12FF0E070E0CF010E94E03120918A
:103D20004201820F2091C102022E000C330B90E061
:103D3000E217F307CCF020913F01022E000C330B69
:103D40002E173F078CF09C01220F331F820F931F09
:103D50009C01295F3C4F40910503609104038091D1
:103D600003030E94461B0BC0FC01EE0FFF1F8E0FCA
:103D70009F1FFC01E95FFC4F1182108212821F5FBE
:103D8000C4CF0E94CD1B80913E012091C102280F1B
:103D90002093C10290913F01980F90933F01191613
:103DA0005CF4022E000C330B4091440150E0415072
:103DB00051092417350734F0819580933E018130F5
:103DC00009F41C82DF91CF911F9108958F929F92E9
:103DD000AF92BF92CF92DF92EF92FF920F931F9319
:103DE000CF93DF938C01FC014481C42FD0E09E016E
:103DF000DE010E9424329B01AC010E943A326B0129
:103E00007C01E0E2F0E0EC1BFD0BA5E5B0E09B01DE
:103E1000AC010E943A324B015C019F01DF010E941C
:103E20001C329B01AC010E9445329B01AC012C0D60
:103E30003D1D4E1D5F1DC501B4010E94F431C22F0E
:103E4000D22F2A3228F4F3E02F9F900111240DC0C5
:103E500025E530E02C1B3109C901880F991F280F77
:103E6000391F37FF02C02F5F3F4F35952795C22F6F
:103E7000C095F12C85E5E82EED1A80914401F816E5
:103E8000C8F4F1FC02C08E2D01C08D2F909142012B
:103E90002F2D30E0290F311DA901440F551F240F8C
:103EA000351F295F3C4F4C2F609104030E94461B35
:103EB000F394E3CF0E94CD1BF8018481811102C0ED
:103EC00091E003C0803219F49FEF90933D019091EF
:103ED0003D01890FF8018483DF91CF911F910F91EC
:103EE000FF90EF90DF90CF90BF90AF909F908F901A
:103EF00008950F931F93CF93DF93EC0100E010E040
:103F000080914401282F30E00217130724F5909187
:103F100042019801290F311DA901440F551F240F9B
:103F2000351F295F3C4F869590E04C810817190793
:103F30001CF4442331F002C0411103C04091050339
:103F400001C040E060910403809103030E94461B7E
:103F50000F5F1F4FD5CF0E94CD1B8C8190E0019643
:103F6000817099278C83DF91CF911F910F910895D4
:103F70001092CF02089525E0E2E0F3E0DC01019029
:103F80000D922A95E1F72091CD023091CE02409119
:103F9000CF02FC0125833683478308956091020395
:103FA000669570E04BE050E085E491E00E94593264
:103FB000892B19F481E08093CE020E94C32990934B
:103FC000C7028093C6028091CF0284608093CF02A3
:103FD0000895EDECF2E0118282818460828308957D
:103FE0009091020390FF3AC09170811102C09260DB
:103FF00006C0853210F0986402C0880F982B909309
:1040000002038091CF0281608093CF02662351F03A
:104010006091020370910303809104039091050362
:104020000E946B1B60910203669570E04BE050E0CC
:1040300085E491E00E945932892B19F00E94E91F12
:1040400002C00E94CE1F81E08093C9024091050307
:1040500060910403809103030C94851D0895682FDB
:1040600090910203969581E0890F853208F081E0F6
:104070000C94F01F81E00C942F20682F9091020384
:1040800096958FEF890F09F484E20C94F01F81E07C
:104090000C943D2061E00C94F01FE2E0F3E080819D
:1040A0008160808386950C944A2060E00C94F01F18
:1040B000E2E0F3E080818E7F808360817181828184
:1040C00093810E946B1B0E94E91FEDECF2E082815C
:1040D000816082832FEF80E792E021508040904002
:1040E000E1F700C000000C94CD1B8091020380FD1D
:1040F0000C9458200C944D20E2E0F3E080818E7FF8
:1041000080830E94E91FEDECF2E08281816082836E
:104110002FEF80E792E0215080409040E1F700C00F
:1041200000000C94CD1B1F93CF93DF93EC01162F4F
:104130008F8180FF0FC0888180FF0AC080910203B9
:10414000816080930203888186950E94F01F02C0DF
:104150000E947C208F8181FF06C0212F4B816A81C4
:1041600089810E948A1C8F8182FF08C08E818823EA
:1041700019F00E94CE1F02C00E94E91F8F8183FFA9
:1041800003C081E08093C902DF91CF911F91089510
:104190008091CC02811133C00E94860F811104C02E
:1041A0000E9427100E947D1B0E94671B60930203E0
:1041B0007093030380930403909305038091CF02CF
:1041C00083608093CF026E7F61F40E947D1B0E940A
:1041D000671B60930203709303038093040390931F
:1041E00005030E94541B0E94E91F8091020380FF77
:1041F00003C086950E94552081E08093CC020895EB
:10420000EF92FF920F931F93CF93DF938091CE0293
:10421000882309F4ABC08091CD02E0910203E695BA
:10422000E81BE093C802823049F4F0E0E652FC4F0C
:10423000E491CE2FD0E006E21CE149C0863049F47B
:10424000F0E0E952FC4FE491CE2FD0E00AE31CE10C
:104250003EC0893051F4E695F0E0EC52FC4FE49119
:10426000CE2FD0E008E81DE132C08F3051F4E69542
:10427000F0E0EF52FC4FE491CE2FD0E003EC1DE1D3
:1042800026C0853149F4F0E0E253FC4FE491CE2F93
:10429000D0E000E61EE11BC0883181F0833239F4A2
:1042A000ECECF3E0C591D4910AE41CE110C0843237
:1042B00051F4C4EFD1E009E71FE109C0C8E2D0E042
:1042C00006EE1EE104C0C0EDD7E00DE31BE18091D6
:1042D000C902882361F01092C9020E94C3299093F9
:1042E000C7028093C6021092CB021092CA020E94AB
:1042F000C329E091C602F091C7029C012E1B3F0B1F
:104300002F3F3F4798F52091C5022223B1F010922C
:10431000C5022091C3023091C402821B930B8F3FD0
:104320009F4758F4205D3A483093C4022093C3025B
:104330008091CF0288608093CF02E090CA02F09013
:10434000CB02EC0FFD1FF093C702E093C60286EC90
:1043500092E0F80109958091CA029091CB02892BD5
:1043600029F4EF2819F081E08093C502DF91CF9105
:104370001F910F91FF90EF900895882311F0FA019B
:1043800001C0FB010994CF93DF93C82FD62F0E9461
:10439000941B8C1740F00E94941B8D1720F4DF9122
:1043A000CF910C943A208C2FDF91CF910C944A201E
:1043B0001F93CF93DF93FB0112811111C3C0EC0156
:1043C0000E94C70E8272CD3CFCE5DF0709F49AC05B
:1043D000A8F5C73CECE5DE0709F476C0A8F4C43CB8
:1043E0009CE5D90709F45FC028F4C33CDC4509F417
:1043F00057C054C0C53C9CE5D90709F459C0C63C18
:10440000DC4509F45CC04AC0CA3CFCE5DF0709F49E
:104410006AC050F4C83CECE5DE0709F45AC0C93C58
:10442000DC4509F45BC03AC0CB3C9CE5D90709F4F4
:104430005FC0CC3CDC4509F460C030C0C23DFCE547
:10444000DF0709F46FC088F4CF3C9CE5D90709F475
:1044500060C008F45CC0C03DFCE5DF0709F45CC047
:10446000C13DDC4509F45BC019C0C53D9CE5D907D9
:1044700009F460C050F4C33DFCE5DF0709F455C002
:10448000C43DDC4509F454C009C0C63D9CE5D907CC
:1044900009F455C0CE35DD4509F454C011E052C0D1
:1044A0000E9475204FC047E450E26AE370E204C006
:1044B0004AE350E267E470E20E94BD2143C043E456
:1044C0005DE166E37DE1F8CF46E35DE163E47DE134
:1044D000F3CF41E65DE162E57DE1EECF42E55DE1EE
:1044E00061E67DE1E9CF4FE75DE160E77DE1E4CFA3
:1044F00040E75DE16FE77DE1DFCF47EC5BE160EB3B
:104500007BE1DACF40EB5BE167EC7BE1D5CF81E08B
:1045100017C065E082E010C068E086E00DC06EE084
:1045200089E00AC064E18FE007C067E185E104C06B
:1045300088E106C062E289E10E94C32103C083E2F0
:104540000E944A20812FDF91CF911F910895809181
:104550002B038170089586E090E00C947C32682FE4
:1045600086E090E00C94903280912B0384708963F4
:1045700080932B030C94AF2280912B038695869514
:10458000869508950E94860F811104C00E9427100D
:104590000E94B4220E94AB2280932B03282F2695E1
:1045A0002695269530E02830310524F08770886301
:1045B00080932B0380912B0380FF04C08695869502
:1045C000869501C080E00C94D32320912B03822F89
:1045D000869586958695482F50E04730510554F4CE
:1045E0008F5F982F990F990F990F822F8770892BC2
:1045F00080932B0380912B03816080932B030E9477
:10460000AF2280912B038695869586950C94D323B3
:1046100080912B03982F969596959695A1F0915E93
:10462000990F990F990F8770892B80932B03887F9F
:1046300091E009F490E080912B0390FB80F9809346
:104640002B030E94AF2280912B0386958695869539
:104650000C94D32380912B0380FD13C08160809341
:104660002B03813019F489E080932B0380912B0375
:104670000E94AF2280912B038695869586950C9497
:10468000D323089580912B0380FF08C08E7F8093F1
:104690002B030E94AF2280E00C94D32308958091D5
:1046A0002B0380FD0C9442230C942A2390912B031E
:1046B000892F8695869586958F5F8F719770883044
:1046C00038F4880F880F880F892B80932B0302C042
:1046D00090932B0380912B03887F91E009F490E065
:1046E00080912B0390FB80F980932B030E94AF22D3
:1046F00080912B038695869586950C94D3238830DC
:1047000008F087E090912B039770282F220F220F3B
:10471000220F922B90932B03987F21E009F420E045
:1047200090912B0320FB90F990932B030C94D323AF
:104730000E947F2380912B030C94AF229C01FB01EC
:104740008281882349F12E3BFCE53F07C9F040F404
:104750002C3BECE53E0769F02D3B3C4561F00895AC
:10476000203C9CE5390791F070F0213C3C4589F0F4
:10477000089587E001C080E00E94982380E00895BA
:104780000E940823FBCF0E94E522F8CF0E944F230E
:10479000F5CF0E945623F2CF81E00895259A2D98F7
:1047A00008952D980895CF92DF92EF92FF92CF93C4
:1047B000C82F883050F4811109C0809180008F7714
:1047C000809380000E94D12306C0C7E080918000C2
:1047D0008068809380002C2F30E0AFEFBFEF0E9405
:1047E000243227E030E040E050E00E94F431B42F62
:1047F000A32F922F8827492F5A2F6B2F7727CA0173
:104800004C3724E1520728F469E070E00E94CC3173
:1048100029C0DB01CA018A50974DAF4FBF4F6627B1
:10482000782F892F9A2F25EF38E241E050E00E943F
:10483000F43169017A01CA01B9010E94AE319B01CC
:10484000AC01C701B6010E94AE31BB27A92F982F3A
:10485000872F009721E0A207B10511F0BC0102C02B
:104860006FEF7FEF7093890060938800CF91FF9086
:10487000EF90DF90CF90089508950E94CE2382E8B4
:104880008093800089E1809381008FEF9FEF909368
:104890008700809386000C94C222249A25B12F7E33
:1048A00035B130614FB7F894FC01CB01880F991FE7
:1048B000680F791F6E0F7F1FE617F70789F0819148
:1048C00098E035B9000000C087FF25B9880F0000C7
:1048D00000C000C000C025B900C09A9591F7ECCF88
:1048E0004FBF8FE594E00197F1F700C000000895F5
:1048F0000895FC01680F791F8FEF91E3E617F70722
:1049000071F02191822728E030E087FF03C0880FF3
:10491000892701C0880F21503109B9F7EFCF0895D9
:104920000F931F93CF93DF93C42FD22FFC0182816B
:104930008823C9F04093D2020E94592A9093D10251
:104940008093D00280E28C0F883008F057C0C77087
:1049500081E001C0880FCA95EAF7DF91CF911F91DE
:104960000F910C9454068091D202481330C080916C
:10497000D0029091D1020E94712A883C910538F5AD
:1049800010E21D0FCD17B9F080E28C0F883040F493
:10499000C77081E001C0880FCA95EAF70E945B06E4
:1049A000183028F581E09D2F977001C0880F9A95E7
:1049B000EAF70E945406802F0E944B061830F0F44C
:1049C000D77081E001C0880FDA95EAF70AC080E26B
:1049D0008C0F883098F4C77081E001C0880FCA95A9
:1049E000EAF7DF91CF911F910F910C945B06802F16
:1049F000DF91CF911F910F910C944B06DF91CF91D6
:104A00001F910F9108950F939C01CB01243F4CE51A
:104A1000340731F188F4293DFCE53F07D9F02A3D00
:104A20004CE5340779F1283D3C45A9F506E221EE35
:104A300041EE68ED7CE52BC0263FFCE53F07E1F049
:104A4000A8F0273F3C4539F507E225EE46EE67EF33
:104A50007CE51DC007E225EE45EE69ED7CE517C05B
:104A600006E221EE40EE64EF7CE511C007E225EEA0
:104A700044EE65EF7CE50BC006E221EE42EE66EF08
:104A80007CE505C008E221E045EE6AED7CE50E9488
:104A9000902480E008C0FC018281882319F01092E4
:104AA000D20201C081E00F910895CF93DF93EC0112
:104AB000FB018281882309F426C1C430FDE5DF07AC
:104AC00060F4CB3F9CE5D90768F49E0122503C4539
:104AD0002431310508F018C105C0C236EDE5DE0706
:104AE00009F012C10E94990F9093EA028093E902A3
:104AF000C031FCE5DF0709F4CAC008F041C0C83086
:104B00009CE5D90709F4A4C0F0F4C430FCE5DF0744
:104B100009F48CC068F4C2309CE5D90709F482C05E
:104B2000C330DC4509F0E5C08091E9028260DFC056
:104B3000C630FCE5DF0709F483C008F085C080912A
:104B4000E9028860D4C0CC309CE5D90709F490C054
:104B500068F4CA30FCE5DF0709F47EC008F084C0C1
:104B60000E94E1088091E9028068C1C0CE309CE5D6
:104B7000D90709F481C008F086C08091E90294C089
:104B8000CD3FFCE5DF0709F47BC038F5C4319CE577
:104B9000D90709F49AC058F4C231FCE5DF0709F4DB
:104BA0007AC008F07EC08091E9028F7BA0C0CB3F25
:104BB0009CE5D907F1F108F03FC0C531DC4509F0AB
:104BC00098C08091E90282FB222720F991E0922788
:104BD00090FB82F990FB83F98AC0C1308DE5D8073C
:104BE00009F467C050F48091EA02CF3FECE5DE079C
:104BF000C1F108F05BC08D7F65C0C3308DE5D8077B
:104C000009F471C008F46DC0C236DD4509F071C009
:104C10008091E90284FB222720F991E0922790FB02
:104C200084F965C08091E902816061C08091E902E8
:104C300016C08091EA0216C08091EA02826042C0EA
:104C40008091E902806153C08091E90280624FC087
:104C50008091E90280644BC08091E90288608460A1
:104C600046C0826081602EC08091E9028E7F3FC085
:104C70008091E9028D7F3BC08091E902877F37C038
:104C80008091EA0214C08091E9028F7E30C0809149
:104C9000E9028F7D2CC00E94E1088091E9028F77A4
:104CA00026C08091E902877F8B7F21C08D7F8E7F18
:104CB00009C08091EA02982F909591708E7F892B80
:104CC00090FB81F98093EA0214C00E94E108809170
:104CD000E90287FB222720F991E0922790FB87F9D0
:104CE00006C081E001C080E00E94291002C08093CC
:104CF000E9028091E9029091EA020E94AA0F0E94C3
:104D0000E10880E001C081E0DF91CF910895CF9369
:104D1000DF9386319C4541F5EB010E94C70E982F29
:104D20008A812091000130910101882379F09A7ADB
:104D300081E009F480E08093D302911102C069E21E
:104D400001C065E3C9010E9477290AC08091D3029E
:104D5000811102C069E201C065E3C9010E9479299D
:104D60000E94190F80E001C081E0DF91CF9108958A
:104D70008EE1489B02C08150E1F7489BFECF089529
:104D8000589880E28A95F1F7589A0895FC012AE034
:104D90002A95F1F728E090E080E031E040E14A9583
:104DA000F1F7880F489B02C08160932700C0000084
:104DB00040E14A95F1F7215089F720E12A95F1F772
:104DC00029B100C0000030E13A95F1F72170922737
:104DD0002081920F90830895EF92FF920F931F937B
:104DE000CF93DF931F92CDB7DEB719828C017C0180
:104DF000E60EF11C0E151F0551F00E94B826CE01DB
:104E000001960E94C626F80181938F01F3CF81E0BD
:104E10009981911180E00F90DF91CF911F910F91B7
:104E2000FF90EF900895509A589A08955098589A84
:104E3000E89AE9E6F0E080818C7F808308956150F4
:104E400091E001C0990F6A95EAF720E031E09923DB
:104E500061F0492F482319F0589A232701C0589828
:104E600040E24A95F1F79695F2CF222311F0589A35
:104E700001C0589880E28A95F1F758980895FF92FA
:104E80000F931F93CF93DF93EC018C01060F111D3D
:104E9000C017D10741F0F9900E94C02668E08F2D1D
:104EA0000E941F27F5CFDF91CF911F910F91FF90A7
:104EB00008951F920F920FB60F921124EF92FF9256
:104EC0000F931F932F933F934F935F936F937F9312
:104ED0008F939F93AF93BF93EF93FF93CF93DF9302
:104EE0001F92CDB7DEB719820E94B826CE01019677
:104EF0000E94C626A82FA695A695A6959A2F9695A8
:104F000095702A2F2570920F292F237096959695CC
:104F1000920F877089137CC08981811179C0A63076
:104F200008F076C080E18A95F1F7589A509AB2E07D
:104F3000BA95F1F700C05898EA2EF12CEAE0AE9F3E
:104F4000D0011124AD5FBE4F1896ED91FC911997D9
:104F50003097B1F06091CD017091CE0116962D91F0
:104F60003C911797260F371F13968D919C9114979C
:104F7000680F791F15964C91159712968C9109958B
:104F80008AE08E9DF0018F9DF00D1124ED5FFE4FA4
:104F90006581662351F08091CD019091CE012681EB
:104FA0003781820F931F0E943F270E94C026F0E1A5
:104FB000FA95F1F758985098589A80E18A95F1F748
:104FC0008AE08E9D80018F9D100D11240D5F1E4F74
:104FD000D80112966C911297662399F08091CD01B9
:104FE0009091CE0113962D913C911497820F931FAF
:104FF0000E94EC26D801ED91FC91811105C082E060
:1050000004C0D801ED91FC9188E080830E94B8260D
:105010000F90DF91CF91FF91EF91BF91AF919F9151
:105020008F917F916F915F914F913F912F911F9140
:105030000F91FF90EF900F900FBE0F901F9018955B
:105040000F931F93CF93DF93863091050CF0A9C087
:105050002AE0289FF001299FF00D1124ED5FFE4FFB
:1050600020813181232B09F49CC0EC01F894509AE3
:10507000589885E08A95F1F700008C2F8695857009
:105080009C2F9570890F982F9370869586958E0129
:1050900023E0000F111F2A95E1F7890F082B0E94CA
:1050A000C026A4E0AA95F1F700C068E0802F0E9416
:1050B0001F27B0E1BA95F1F75098589A489902C065
:1050C00000C0FCCF87E090E0489B17C0019799F49F
:1050D000509A589A8AE08C9FF0018D9FF00D112410
:1050E000ED5FFE4F0190F081E02D81E080837894A8
:1050F00081E090E058C000C0E7CF8AE08C9F80013B
:105100008D9F100D11240D5F1E4FF80165816623E0
:10511000B9F08091CD019091CE0126813781820F27
:10512000931F0E94EC2681110BC0509A589AD80107
:10513000ED91FC9182E08083789482E090E033C02E
:105140000E94B826B0E2BA95F1F75898509AE0E17B
:10515000EA95F1F78AE08C9FF0018D9FF00D112404
:10516000ED5FFE4F6281662351F08091CD019091F9
:10517000CE0123813481820F931F0E943F270E941A
:10518000C0268AE08C9FF0018D9FF00D1124ED5F09
:10519000FE4F0190F081E02D1082789480E090E045
:1051A00002C084E090E0DF91CF911F910F910895AC
:1051B0009093DA028093D90208950E941B15811101
:1051C00003C08091D4020895E091D902F091DA02EF
:1051D000309721F00190F081E02D099480E008954E
:1051E000E091D902F091DA02309721F00280F38148
:1051F000E02D09940895E091D902F091DA023097F8
:1052000039F022E0DC012C930480F581E02D099433
:1052100008952091D7023091D8022817390771F0EC
:105220009093D8028093D702E091D902F091DA02EC
:10523000309721F00680F781E02D099408952091A0
:10524000D5023091D6022817390771F09093D60213
:105250008093D502E091D902F091DA02309721F0E3
:105260000084F185E02D09940895FC01329697E0C1
:1052700080E0915029F021912223D9F38F5FF9CF5B
:105280000895662349F0FC01329608962191621731
:1052900029F0E817F907D1F780E0089581E0089533
:1052A0009C01FC0132969FEF80E04191461789F006
:1052B0009F3F19F4411101C0982F8F5F8630A9F7E5
:1052C0009F3F39F0F901E90FF11D97FDFA956283CF
:1052D000089508959C012A5F3F4FFC0142814613C7
:1052E00001C01282019682179307B9F708950C94B2
:1052F00050290C946A29029626E0FC0111922A9505
:10530000E9F7089510922C0310922D0310922E03AA
:1053100010922F030895CF92DF92EF92FF926B01CC
:105320007C010E941B1581110EC00E94652AC61ABD
:10533000D70AE80AF90AC0922C03D0922D03E09212
:105340002E03F0922F03FF90EF90DF90CF900895FF
:105350000F931F930E941B15882321F01F910F911B
:105360000C94652A0E94652A00912C0310912D034C
:1053700020912E0330912F03600F711F821F931F06
:105380001F910F9108950E941B1581110C94592AA9
:105390000E94A829CB010895089508950C94CD2961
:1053A0000C94CD29CF930E94D0290E9489140E9489
:1053B000CE29C0E08C2F0E945313811104C0CF5F0F
:1053C000CA30C1F701C081E0CF9108950C94CD2976
:1053D0000C94E62980913803843061F10E94E82919
:1053E00080E00E94D32380E00E94C9041092DB0277
:1053F00020E488E190E00FB6F894A89580936000CF
:105400000FBE2093600083B7817F846083BF83B722
:10541000816083BF7894889583B78E7F83BF0FB6F2
:10542000F894A89580916000886180936000109244
:1054300060000FBE08950C94CD290E94E1080E94DF
:10544000C2220E94DD280E94C9040C941B2A1F92CC
:105450000F920FB60F9211248F939F93AF93BF9328
:105460008091DB02811113C0809130039091310350
:10547000A0913203B09133034196A11DB11D8093D9
:10548000300390933103A0933203B0933303BF9161
:10549000AF919F918F910F900FBE0F901F90189515
:1054A00082E084BD93E095BD9AEF97BD80936E0036
:1054B00008952FB7F8948091300390913103A09113
:1054C0003203B09133032FBF08952FB7F894609142
:1054D00030037091310380913203909133032FBFD9
:1054E00008959C014FB7F894809130039091310357
:1054F000A0913203B09133034FBF821B930B0895E9
:10550000CF92DF92EF92FF922FB7F894C0903003C2
:10551000D0903103E0903203F09033032FBFA70106
:105520009601261B370B480B590BCA01B901FF9096
:10553000EF90DF90CF90089578941F920F920FB65E
:105540000F9211248F939F93AF93BF938091300359
:1055500090913103A0913203B09133030196A11DC4
:10556000B11D8093300390933103A0933203B09325
:105570003303BF91AF919F918F910F900FBE0F900A
:105580001F90189581E08093E00080E28093D8001E
:105590001092C9008FE19EE40197F1F700C000006E
:1055A00087E090EBDC018093410390934203A0934A
:1055B0004303B09344039CE088E10FB6F894A895A8
:1055C000809360000FBE90936000FFCF9093F50131
:1055D0008093F40108958091E70208959091380333
:1055E000943031F58093DC027093DE026093DD022B
:1055F00082E08093E9008FEF9091E800815095FD63
:1056000006C095ED9A95F1F700008111F5CF8091D4
:10561000E80085FF0DC040E050E063E070E08CEDF5
:1056200092E00E94FE2C8091E8008E778093E80043
:105630000895BC0184E00C94EE2ABC0183E00C9434
:10564000EE2A22E02093E9002FEF3091E80021506C
:1056500035FD06C035ED3A95F1F700002111F5CF83
:105660002091E80025FF0BC040E050E066E070E0CC
:105670000E94FE2C8091E8008E778093E8000895C8
:10568000CF93DF9321E02093E9002FEF3091E800E2
:10569000215035FD06C035ED3A95F1F70000211196
:1056A000F5CF2091E80025FF14C0EC0140E050E068
:1056B00068E070E00E94FE2C8091E8008E77809375
:1056C000E80088E0FE01AFEDB2E001900D928A950E
:1056D000E1F7DF91CF91089580913703811109C0DF
:1056E0000E948F2E0E94EC2E8091E20084608093B5
:1056F000E2000895109237030895089508950895DB
:1057000042E061EC81E00E94082E42E261EC82E01E
:105710000C94082E80913A03833009F460C030F471
:10572000813071F0823009F499C008958A3009F40B
:1057300085C08B3009F46BC0893009F0A7C020C048
:1057400080913903813A09F0A1C08091E800877FF8
:105750008093E80080913D0390913E03892B21F4D2
:1057600068E08FED92E003C060E080E090E070E0E0
:105770000E94492D8091E8008B778093E80008957E
:1057800080913903813209F081C080913D0390916D
:105790003E03029708F07AC08091E800877F8093EB
:1057A000E8008091E80082FD05C0809138038111F6
:1057B000F8CF6CC02091F3008091F20090E0922B22
:1057C000029729F48091F1008B7F813021F4809140
:1057D000F1008093E7028091E8008B7753C08091BD
:1057E0003903813A09F052C080913D0390913E0304
:1057F000892B09F04BC08091E800877F8093E800F7
:105800008091E80080FFFCCF80915A0136C08091E2
:1058100039038132D9F580913D0390913E03892B64
:10582000A9F58091E800877F8093E8000E943D2ED3
:1058300080913B0380935A010C94E10880913903D5
:10584000813221F58091E800877F8093E8000E94F3
:105850003D2E80913C038093E802089580913903A6
:10586000813AA1F48091E800877F8093E8008091DD
:10587000E80080FFFCCF8091E8028093F1008091E6
:10588000E8008E778093E8000C943D2E089584B74D
:10589000877F84BF0FB6F894A895809160008861D7
:1058A00080936000109260000FBE90E080E80FB619
:1058B000F89480936100909361000FBE0C94571090
:1058C0000E948F2E0E94EC2EE2EEF0E08081846038
:1058D000808378940E9481310E94651080E591E078
:1058E0000C94D828809138038530A9F4809138032E
:1058F000853079F40E94EA29809136038823B1F338
:105900000E94D229882391F30E94E82C0E94E1088A
:10591000EDCF0E941D2A0C9473100C948F2C292F0C
:10592000332723303105C9F060F42130310581F08F
:105930002230310509F044C08BE390E023E236E0E9
:1059400043C021323105E1F02232310549F138C03E
:1059500082E190E02EE536E037C09927813091054D
:1059600049F028F0029761F5E3EEF5E005C0EFE1BC
:10597000F6E002C0EFE0F6E0849190E09F0124C0E1
:105980006115710541F061307105D1F489E090E055
:105990002EE436E019C089E090E025E336E014C03B
:1059A0006115710541F06130710551F48BE790E0AC
:1059B00020E736E009C080E490E02BEE36E004C03A
:1059C00080E090E020E030E0FA0131832083089508
:1059D00080E189BD82E189BD09B400FEFDCF8091DF
:1059E000D8008F7D8093D8008091E0008260809302
:1059F000E0008091E00081FDFCCF0895CF92DF921E
:105A0000EF92FF920F931F93CF93DF93EC018B01E3
:105A10007A010E945C2E811133C0E114F10439F047
:105A2000F70180819181081B190BC80FD91FC12C68
:105A3000D12C0115110519F18091E80085FD16C0E2
:105A40008091E8008E778093E800E114F10449F03A
:105A5000F70180819181C80ED91ED182C08285E074
:105A60000FC00E945C2E882321F30AC08991809385
:105A7000F10001501109FFEFCF1ADF0ADACF80E001
:105A8000DF91CF911F910F91FF90EF90DF90CF901A
:105A9000089520913F03309140032617370748F0BF
:105AA0006115710539F42091E8002E772093E80004
:105AB00001C0B901FC0120E06115710579F1809107
:105AC00038038823F1F18530F1F18091E80083FDFE
:105AD0003CC08091E80082FD2EC08091E80080FFEC
